{
  "_format": "hh-sol-artifact-1",
  "contractName": "AVAXGods",
  "sourceName": "contracts/AvaxGods.sol",
  "abi": [
    {
      "inputs": [
        {
          "internalType": "string",
          "name": "_metadataURI",
          "type": "string"
        }
      ],
      "stateMutability": "nonpayable",
      "type": "constructor"
    },
    {
      "anonymous": false,
      "inputs": [
        {
          "indexed": true,
          "internalType": "address",
          "name": "account",
          "type": "address"
        },
        {
          "indexed": true,
          "internalType": "address",
          "name": "operator",
          "type": "address"
        },
        {
          "indexed": false,
          "internalType": "bool",
          "name": "approved",
          "type": "bool"
        }
      ],
      "name": "ApprovalForAll",
      "type": "event"
    },
    {
      "anonymous": false,
      "inputs": [
        {
          "indexed": false,
          "internalType": "string",
          "name": "battleName",
          "type": "string"
        },
        {
          "indexed": true,
          "internalType": "address",
          "name": "winner",
          "type": "address"
        },
        {
          "indexed": true,
          "internalType": "address",
          "name": "loser",
          "type": "address"
        }
      ],
      "name": "BattleEnded",
      "type": "event"
    },
    {
      "anonymous": false,
      "inputs": [
        {
          "indexed": true,
          "internalType": "string",
          "name": "battleName",
          "type": "string"
        },
        {
          "indexed": true,
          "internalType": "bool",
          "name": "isFirstMove",
          "type": "bool"
        }
      ],
      "name": "BattleMove",
      "type": "event"
    },
    {
      "anonymous": false,
      "inputs": [
        {
          "indexed": false,
          "internalType": "string",
          "name": "battleName",
          "type": "string"
        },
        {
          "indexed": true,
          "internalType": "address",
          "name": "player1",
          "type": "address"
        },
        {
          "indexed": true,
          "internalType": "address",
          "name": "player2",
          "type": "address"
        }
      ],
      "name": "NewBattle",
      "type": "event"
    },
    {
      "anonymous": false,
      "inputs": [
        {
          "indexed": true,
          "internalType": "address",
          "name": "owner",
          "type": "address"
        },
        {
          "indexed": false,
          "internalType": "uint256",
          "name": "id",
          "type": "uint256"
        },
        {
          "indexed": false,
          "internalType": "uint256",
          "name": "attackStrength",
          "type": "uint256"
        },
        {
          "indexed": false,
          "internalType": "uint256",
          "name": "defenseStrength",
          "type": "uint256"
        }
      ],
      "name": "NewGameToken",
      "type": "event"
    },
    {
      "anonymous": false,
      "inputs": [
        {
          "indexed": true,
          "internalType": "address",
          "name": "owner",
          "type": "address"
        },
        {
          "indexed": false,
          "internalType": "string",
          "name": "name",
          "type": "string"
        }
      ],
      "name": "NewPlayer",
      "type": "event"
    },
    {
      "anonymous": false,
      "inputs": [
        {
          "indexed": true,
          "internalType": "address",
          "name": "previousOwner",
          "type": "address"
        },
        {
          "indexed": true,
          "internalType": "address",
          "name": "newOwner",
          "type": "address"
        }
      ],
      "name": "OwnershipTransferred",
      "type": "event"
    },
    {
      "anonymous": false,
      "inputs": [
        {
          "indexed": false,
          "internalType": "address[2]",
          "name": "damagedPlayers",
          "type": "address[2]"
        }
      ],
      "name": "RoundEnded",
      "type": "event"
    },
    {
      "anonymous": false,
      "inputs": [
        {
          "indexed": true,
          "internalType": "address",
          "name": "operator",
          "type": "address"
        },
        {
          "indexed": true,
          "internalType": "address",
          "name": "from",
          "type": "address"
        },
        {
          "indexed": true,
          "internalType": "address",
          "name": "to",
          "type": "address"
        },
        {
          "indexed": false,
          "internalType": "uint256[]",
          "name": "ids",
          "type": "uint256[]"
        },
        {
          "indexed": false,
          "internalType": "uint256[]",
          "name": "values",
          "type": "uint256[]"
        }
      ],
      "name": "TransferBatch",
      "type": "event"
    },
    {
      "anonymous": false,
      "inputs": [
        {
          "indexed": true,
          "internalType": "address",
          "name": "operator",
          "type": "address"
        },
        {
          "indexed": true,
          "internalType": "address",
          "name": "from",
          "type": "address"
        },
        {
          "indexed": true,
          "internalType": "address",
          "name": "to",
          "type": "address"
        },
        {
          "indexed": false,
          "internalType": "uint256",
          "name": "id",
          "type": "uint256"
        },
        {
          "indexed": false,
          "internalType": "uint256",
          "name": "value",
          "type": "uint256"
        }
      ],
      "name": "TransferSingle",
      "type": "event"
    },
    {
      "anonymous": false,
      "inputs": [
        {
          "indexed": false,
          "internalType": "string",
          "name": "value",
          "type": "string"
        },
        {
          "indexed": true,
          "internalType": "uint256",
          "name": "id",
          "type": "uint256"
        }
      ],
      "name": "URI",
      "type": "event"
    },
    {
      "inputs": [],
      "name": "CELESTION",
      "outputs": [
        {
          "internalType": "uint256",
          "name": "",
          "type": "uint256"
        }
      ],
      "stateMutability": "view",
      "type": "function"
    },
    {
      "inputs": [],
      "name": "DEVIL",
      "outputs": [
        {
          "internalType": "uint256",
          "name": "",
          "type": "uint256"
        }
      ],
      "stateMutability": "view",
      "type": "function"
    },
    {
      "inputs": [],
      "name": "FIREBIRD",
      "outputs": [
        {
          "internalType": "uint256",
          "name": "",
          "type": "uint256"
        }
      ],
      "stateMutability": "view",
      "type": "function"
    },
    {
      "inputs": [],
      "name": "GRIFFIN",
      "outputs": [
        {
          "internalType": "uint256",
          "name": "",
          "type": "uint256"
        }
      ],
      "stateMutability": "view",
      "type": "function"
    },
    {
      "inputs": [],
      "name": "KAMO",
      "outputs": [
        {
          "internalType": "uint256",
          "name": "",
          "type": "uint256"
        }
      ],
      "stateMutability": "view",
      "type": "function"
    },
    {
      "inputs": [],
      "name": "KUKULKAN",
      "outputs": [
        {
          "internalType": "uint256",
          "name": "",
          "type": "uint256"
        }
      ],
      "stateMutability": "view",
      "type": "function"
    },
    {
      "inputs": [],
      "name": "MAX_ATTACK_DEFEND_STRENGTH",
      "outputs": [
        {
          "internalType": "uint256",
          "name": "",
          "type": "uint256"
        }
      ],
      "stateMutability": "view",
      "type": "function"
    },
    {
      "inputs": [
        {
          "internalType": "uint8",
          "name": "_choice",
          "type": "uint8"
        },
        {
          "internalType": "string",
          "name": "_battleName",
          "type": "string"
        }
      ],
      "name": "attackOrDefendChoice",
      "outputs": [],
      "stateMutability": "nonpayable",
      "type": "function"
    },
    {
      "inputs": [
        {
          "internalType": "address",
          "name": "account",
          "type": "address"
        },
        {
          "internalType": "uint256",
          "name": "id",
          "type": "uint256"
        }
      ],
      "name": "balanceOf",
      "outputs": [
        {
          "internalType": "uint256",
          "name": "",
          "type": "uint256"
        }
      ],
      "stateMutability": "view",
      "type": "function"
    },
    {
      "inputs": [
        {
          "internalType": "address[]",
          "name": "accounts",
          "type": "address[]"
        },
        {
          "internalType": "uint256[]",
          "name": "ids",
          "type": "uint256[]"
        }
      ],
      "name": "balanceOfBatch",
      "outputs": [
        {
          "internalType": "uint256[]",
          "name": "",
          "type": "uint256[]"
        }
      ],
      "stateMutability": "view",
      "type": "function"
    },
    {
      "inputs": [],
      "name": "baseURI",
      "outputs": [
        {
          "internalType": "string",
          "name": "",
          "type": "string"
        }
      ],
      "stateMutability": "view",
      "type": "function"
    },
    {
      "inputs": [
        {
          "internalType": "string",
          "name": "",
          "type": "string"
        }
      ],
      "name": "battleInfo",
      "outputs": [
        {
          "internalType": "uint256",
          "name": "",
          "type": "uint256"
        }
      ],
      "stateMutability": "view",
      "type": "function"
    },
    {
      "inputs": [
        {
          "internalType": "uint256",
          "name": "",
          "type": "uint256"
        }
      ],
      "name": "battles",
      "outputs": [
        {
          "internalType": "enum AVAXGods.BattleStatus",
          "name": "battleStatus",
          "type": "uint8"
        },
        {
          "internalType": "bytes32",
          "name": "battleHash",
          "type": "bytes32"
        },
        {
          "internalType": "string",
          "name": "name",
          "type": "string"
        },
        {
          "internalType": "address",
          "name": "winner",
          "type": "address"
        }
      ],
      "stateMutability": "view",
      "type": "function"
    },
    {
      "inputs": [
        {
          "internalType": "string",
          "name": "_name",
          "type": "string"
        }
      ],
      "name": "createBattle",
      "outputs": [
        {
          "components": [
            {
              "internalType": "enum AVAXGods.BattleStatus",
              "name": "battleStatus",
              "type": "uint8"
            },
            {
              "internalType": "bytes32",
              "name": "battleHash",
              "type": "bytes32"
            },
            {
              "internalType": "string",
              "name": "name",
              "type": "string"
            },
            {
              "internalType": "address[2]",
              "name": "players",
              "type": "address[2]"
            },
            {
              "internalType": "uint8[2]",
              "name": "moves",
              "type": "uint8[2]"
            },
            {
              "internalType": "address",
              "name": "winner",
              "type": "address"
            }
          ],
          "internalType": "struct AVAXGods.Battle",
          "name": "",
          "type": "tuple"
        }
      ],
      "stateMutability": "nonpayable",
      "type": "function"
    },
    {
      "inputs": [
        {
          "internalType": "string",
          "name": "_name",
          "type": "string"
        }
      ],
      "name": "createRandomGameToken",
      "outputs": [],
      "stateMutability": "nonpayable",
      "type": "function"
    },
    {
      "inputs": [
        {
          "internalType": "uint256",
          "name": "id",
          "type": "uint256"
        }
      ],
      "name": "exists",
      "outputs": [
        {
          "internalType": "bool",
          "name": "",
          "type": "bool"
        }
      ],
      "stateMutability": "view",
      "type": "function"
    },
    {
      "inputs": [
        {
          "internalType": "uint256",
          "name": "",
          "type": "uint256"
        }
      ],
      "name": "gameTokens",
      "outputs": [
        {
          "internalType": "string",
          "name": "name",
          "type": "string"
        },
        {
          "internalType": "uint256",
          "name": "id",
          "type": "uint256"
        },
        {
          "internalType": "uint256",
          "name": "attackStrength",
          "type": "uint256"
        },
        {
          "internalType": "uint256",
          "name": "defenseStrength",
          "type": "uint256"
        }
      ],
      "stateMutability": "view",
      "type": "function"
    },
    {
      "inputs": [],
      "name": "getAllBattles",
      "outputs": [
        {
          "components": [
            {
              "internalType": "enum AVAXGods.BattleStatus",
              "name": "battleStatus",
              "type": "uint8"
            },
            {
              "internalType": "bytes32",
              "name": "battleHash",
              "type": "bytes32"
            },
            {
              "internalType": "string",
              "name": "name",
              "type": "string"
            },
            {
              "internalType": "address[2]",
              "name": "players",
              "type": "address[2]"
            },
            {
              "internalType": "uint8[2]",
              "name": "moves",
              "type": "uint8[2]"
            },
            {
              "internalType": "address",
              "name": "winner",
              "type": "address"
            }
          ],
          "internalType": "struct AVAXGods.Battle[]",
          "name": "",
          "type": "tuple[]"
        }
      ],
      "stateMutability": "view",
      "type": "function"
    },
    {
      "inputs": [],
      "name": "getAllPlayerTokens",
      "outputs": [
        {
          "components": [
            {
              "internalType": "string",
              "name": "name",
              "type": "string"
            },
            {
              "internalType": "uint256",
              "name": "id",
              "type": "uint256"
            },
            {
              "internalType": "uint256",
              "name": "attackStrength",
              "type": "uint256"
            },
            {
              "internalType": "uint256",
              "name": "defenseStrength",
              "type": "uint256"
            }
          ],
          "internalType": "struct AVAXGods.GameToken[]",
          "name": "",
          "type": "tuple[]"
        }
      ],
      "stateMutability": "view",
      "type": "function"
    },
    {
      "inputs": [],
      "name": "getAllPlayers",
      "outputs": [
        {
          "components": [
            {
              "internalType": "address",
              "name": "playerAddress",
              "type": "address"
            },
            {
              "internalType": "string",
              "name": "playerName",
              "type": "string"
            },
            {
              "internalType": "uint256",
              "name": "playerMana",
              "type": "uint256"
            },
            {
              "internalType": "uint256",
              "name": "playerHealth",
              "type": "uint256"
            },
            {
              "internalType": "bool",
              "name": "inBattle",
              "type": "bool"
            }
          ],
          "internalType": "struct AVAXGods.Player[]",
          "name": "",
          "type": "tuple[]"
        }
      ],
      "stateMutability": "view",
      "type": "function"
    },
    {
      "inputs": [
        {
          "internalType": "string",
          "name": "_name",
          "type": "string"
        }
      ],
      "name": "getBattle",
      "outputs": [
        {
          "components": [
            {
              "internalType": "enum AVAXGods.BattleStatus",
              "name": "battleStatus",
              "type": "uint8"
            },
            {
              "internalType": "bytes32",
              "name": "battleHash",
              "type": "bytes32"
            },
            {
              "internalType": "string",
              "name": "name",
              "type": "string"
            },
            {
              "internalType": "address[2]",
              "name": "players",
              "type": "address[2]"
            },
            {
              "internalType": "uint8[2]",
              "name": "moves",
              "type": "uint8[2]"
            },
            {
              "internalType": "address",
              "name": "winner",
              "type": "address"
            }
          ],
          "internalType": "struct AVAXGods.Battle",
          "name": "",
          "type": "tuple"
        }
      ],
      "stateMutability": "view",
      "type": "function"
    },
    {
      "inputs": [
        {
          "internalType": "string",
          "name": "_battleName",
          "type": "string"
        }
      ],
      "name": "getBattleMoves",
      "outputs": [
        {
          "internalType": "uint256",
          "name": "P1Move",
          "type": "uint256"
        },
        {
          "internalType": "uint256",
          "name": "P2Move",
          "type": "uint256"
        }
      ],
      "stateMutability": "view",
      "type": "function"
    },
    {
      "inputs": [
        {
          "internalType": "address",
          "name": "addr",
          "type": "address"
        }
      ],
      "name": "getPlayer",
      "outputs": [
        {
          "components": [
            {
              "internalType": "address",
              "name": "playerAddress",
              "type": "address"
            },
            {
              "internalType": "string",
              "name": "playerName",
              "type": "string"
            },
            {
              "internalType": "uint256",
              "name": "playerMana",
              "type": "uint256"
            },
            {
              "internalType": "uint256",
              "name": "playerHealth",
              "type": "uint256"
            },
            {
              "internalType": "bool",
              "name": "inBattle",
              "type": "bool"
            }
          ],
          "internalType": "struct AVAXGods.Player",
          "name": "",
          "type": "tuple"
        }
      ],
      "stateMutability": "view",
      "type": "function"
    },
    {
      "inputs": [
        {
          "internalType": "address",
          "name": "addr",
          "type": "address"
        }
      ],
      "name": "getPlayerToken",
      "outputs": [
        {
          "components": [
            {
              "internalType": "string",
              "name": "name",
              "type": "string"
            },
            {
              "internalType": "uint256",
              "name": "id",
              "type": "uint256"
            },
            {
              "internalType": "uint256",
              "name": "attackStrength",
              "type": "uint256"
            },
            {
              "internalType": "uint256",
              "name": "defenseStrength",
              "type": "uint256"
            }
          ],
          "internalType": "struct AVAXGods.GameToken",
          "name": "",
          "type": "tuple"
        }
      ],
      "stateMutability": "view",
      "type": "function"
    },
    {
      "inputs": [],
      "name": "getTotalSupply",
      "outputs": [
        {
          "internalType": "uint256",
          "name": "",
          "type": "uint256"
        }
      ],
      "stateMutability": "view",
      "type": "function"
    },
    {
      "inputs": [
        {
          "internalType": "address",
          "name": "account",
          "type": "address"
        },
        {
          "internalType": "address",
          "name": "operator",
          "type": "address"
        }
      ],
      "name": "isApprovedForAll",
      "outputs": [
        {
          "internalType": "bool",
          "name": "",
          "type": "bool"
        }
      ],
      "stateMutability": "view",
      "type": "function"
    },
    {
      "inputs": [
        {
          "internalType": "string",
          "name": "_name",
          "type": "string"
        }
      ],
      "name": "isBattle",
      "outputs": [
        {
          "internalType": "bool",
          "name": "",
          "type": "bool"
        }
      ],
      "stateMutability": "view",
      "type": "function"
    },
    {
      "inputs": [
        {
          "internalType": "address",
          "name": "addr",
          "type": "address"
        }
      ],
      "name": "isPlayer",
      "outputs": [
        {
          "internalType": "bool",
          "name": "",
          "type": "bool"
        }
      ],
      "stateMutability": "view",
      "type": "function"
    },
    {
      "inputs": [
        {
          "internalType": "address",
          "name": "addr",
          "type": "address"
        }
      ],
      "name": "isPlayerToken",
      "outputs": [
        {
          "internalType": "bool",
          "name": "",
          "type": "bool"
        }
      ],
      "stateMutability": "view",
      "type": "function"
    },
    {
      "inputs": [
        {
          "internalType": "string",
          "name": "_name",
          "type": "string"
        }
      ],
      "name": "joinBattle",
      "outputs": [
        {
          "components": [
            {
              "internalType": "enum AVAXGods.BattleStatus",
              "name": "battleStatus",
              "type": "uint8"
            },
            {
              "internalType": "bytes32",
              "name": "battleHash",
              "type": "bytes32"
            },
            {
              "internalType": "string",
              "name": "name",
              "type": "string"
            },
            {
              "internalType": "address[2]",
              "name": "players",
              "type": "address[2]"
            },
            {
              "internalType": "uint8[2]",
              "name": "moves",
              "type": "uint8[2]"
            },
            {
              "internalType": "address",
              "name": "winner",
              "type": "address"
            }
          ],
          "internalType": "struct AVAXGods.Battle",
          "name": "",
          "type": "tuple"
        }
      ],
      "stateMutability": "nonpayable",
      "type": "function"
    },
    {
      "inputs": [],
      "name": "owner",
      "outputs": [
        {
          "internalType": "address",
          "name": "",
          "type": "address"
        }
      ],
      "stateMutability": "view",
      "type": "function"
    },
    {
      "inputs": [
        {
          "internalType": "address",
          "name": "",
          "type": "address"
        }
      ],
      "name": "playerInfo",
      "outputs": [
        {
          "internalType": "uint256",
          "name": "",
          "type": "uint256"
        }
      ],
      "stateMutability": "view",
      "type": "function"
    },
    {
      "inputs": [
        {
          "internalType": "address",
          "name": "",
          "type": "address"
        }
      ],
      "name": "playerTokenInfo",
      "outputs": [
        {
          "internalType": "uint256",
          "name": "",
          "type": "uint256"
        }
      ],
      "stateMutability": "view",
      "type": "function"
    },
    {
      "inputs": [
        {
          "internalType": "uint256",
          "name": "",
          "type": "uint256"
        }
      ],
      "name": "players",
      "outputs": [
        {
          "internalType": "address",
          "name": "playerAddress",
          "type": "address"
        },
        {
          "internalType": "string",
          "name": "playerName",
          "type": "string"
        },
        {
          "internalType": "uint256",
          "name": "playerMana",
          "type": "uint256"
        },
        {
          "internalType": "uint256",
          "name": "playerHealth",
          "type": "uint256"
        },
        {
          "internalType": "bool",
          "name": "inBattle",
          "type": "bool"
        }
      ],
      "stateMutability": "view",
      "type": "function"
    },
    {
      "inputs": [
        {
          "internalType": "string",
          "name": "_battleName",
          "type": "string"
        }
      ],
      "name": "quitBattle",
      "outputs": [],
      "stateMutability": "nonpayable",
      "type": "function"
    },
    {
      "inputs": [
        {
          "internalType": "string",
          "name": "_name",
          "type": "string"
        },
        {
          "internalType": "string",
          "name": "_gameTokenName",
          "type": "string"
        }
      ],
      "name": "registerPlayer",
      "outputs": [],
      "stateMutability": "nonpayable",
      "type": "function"
    },
    {
      "inputs": [],
      "name": "renounceOwnership",
      "outputs": [],
      "stateMutability": "nonpayable",
      "type": "function"
    },
    {
      "inputs": [
        {
          "internalType": "address",
          "name": "from",
          "type": "address"
        },
        {
          "internalType": "address",
          "name": "to",
          "type": "address"
        },
        {
          "internalType": "uint256[]",
          "name": "ids",
          "type": "uint256[]"
        },
        {
          "internalType": "uint256[]",
          "name": "amounts",
          "type": "uint256[]"
        },
        {
          "internalType": "bytes",
          "name": "data",
          "type": "bytes"
        }
      ],
      "name": "safeBatchTransferFrom",
      "outputs": [],
      "stateMutability": "nonpayable",
      "type": "function"
    },
    {
      "inputs": [
        {
          "internalType": "address",
          "name": "from",
          "type": "address"
        },
        {
          "internalType": "address",
          "name": "to",
          "type": "address"
        },
        {
          "internalType": "uint256",
          "name": "id",
          "type": "uint256"
        },
        {
          "internalType": "uint256",
          "name": "amount",
          "type": "uint256"
        },
        {
          "internalType": "bytes",
          "name": "data",
          "type": "bytes"
        }
      ],
      "name": "safeTransferFrom",
      "outputs": [],
      "stateMutability": "nonpayable",
      "type": "function"
    },
    {
      "inputs": [
        {
          "internalType": "address",
          "name": "operator",
          "type": "address"
        },
        {
          "internalType": "bool",
          "name": "approved",
          "type": "bool"
        }
      ],
      "name": "setApprovalForAll",
      "outputs": [],
      "stateMutability": "nonpayable",
      "type": "function"
    },
    {
      "inputs": [
        {
          "internalType": "string",
          "name": "newuri",
          "type": "string"
        }
      ],
      "name": "setURI",
      "outputs": [],
      "stateMutability": "nonpayable",
      "type": "function"
    },
    {
      "inputs": [
        {
          "internalType": "bytes4",
          "name": "interfaceId",
          "type": "bytes4"
        }
      ],
      "name": "supportsInterface",
      "outputs": [
        {
          "internalType": "bool",
          "name": "",
          "type": "bool"
        }
      ],
      "stateMutability": "view",
      "type": "function"
    },
    {
      "inputs": [
        {
          "internalType": "uint256",
          "name": "tokenId",
          "type": "uint256"
        }
      ],
      "name": "tokenURI",
      "outputs": [
        {
          "internalType": "string",
          "name": "",
          "type": "string"
        }
      ],
      "stateMutability": "view",
      "type": "function"
    },
    {
      "inputs": [],
      "name": "totalSupply",
      "outputs": [
        {
          "internalType": "uint256",
          "name": "",
          "type": "uint256"
        }
      ],
      "stateMutability": "view",
      "type": "function"
    },
    {
      "inputs": [
        {
          "internalType": "uint256",
          "name": "id",
          "type": "uint256"
        }
      ],
      "name": "totalSupply",
      "outputs": [
        {
          "internalType": "uint256",
          "name": "",
          "type": "uint256"
        }
      ],
      "stateMutability": "view",
      "type": "function"
    },
    {
      "inputs": [
        {
          "internalType": "address",
          "name": "newOwner",
          "type": "address"
        }
      ],
      "name": "transferOwnership",
      "outputs": [],
      "stateMutability": "nonpayable",
      "type": "function"
    },
    {
      "inputs": [
        {
          "internalType": "uint256",
          "name": "",
          "type": "uint256"
        }
      ],
      "name": "uri",
      "outputs": [
        {
          "internalType": "string",
          "name": "",
          "type": "string"
        }
      ],
      "stateMutability": "view",
      "type": "function"
    }
  ],
  "bytecode": "0x60806040523480156200001157600080fd5b506040516200929838038062009298833981810160405281019062000037919062000787565b8062000049816200009a60201b60201c565b506200006a6200005e620000b660201b60201c565b620000be60201b60201c565b80600590805190602001906200008292919062000536565b50620000936200018460201b60201c565b506200098b565b8060029080519060200190620000b292919062000536565b5050565b600033905090565b6000600360009054906101000a900473ffffffffffffffffffffffffffffffffffffffff16905081600360006101000a81548173ffffffffffffffffffffffffffffffffffffffff021916908373ffffffffffffffffffffffffffffffffffffffff1602179055508173ffffffffffffffffffffffffffffffffffffffff168173ffffffffffffffffffffffffffffffffffffffff167f8be0079c531659141344cd1fd0a4f28419497f9722a3daafe3b4186f6b6457e060405160405180910390a35050565b600b604051806080016040528060405180602001604052806000815250815260200160008152602001600081526020016000815250908060018154018082558091505060019003906000526020600020906004020160009091909190915060008201518160000190805190602001906200020092919062000536565b506020820151816001015560408201518160020155606082015181600301555050600a6040518060a00160405280600073ffffffffffffffffffffffffffffffffffffffff168152602001604051806020016040528060008152508152602001600081526020016000815260200160001515815250908060018154018082558091505060019003906000526020600020906005020160009091909190915060008201518160000160006101000a81548173ffffffffffffffffffffffffffffffffffffffff021916908373ffffffffffffffffffffffffffffffffffffffff16021790555060208201518160010190805190602001906200030392919062000536565b50604082015181600201556060820151816003015560808201518160040160006101000a81548160ff0219169083151502179055505050600c6040518060c00160405280600060028111156200035e576200035d620008d9565b5b81526020016000801b81526020016040518060200160405280600081525081526020016040518060400160405280600073ffffffffffffffffffffffffffffffffffffffff1673ffffffffffffffffffffffffffffffffffffffff168152602001600073ffffffffffffffffffffffffffffffffffffffff1673ffffffffffffffffffffffffffffffffffffffff1681525081526020016040518060400160405280600060ff168152602001600060ff168152508152602001600073ffffffffffffffffffffffffffffffffffffffff16815250908060018154018082558091505060019003906000526020600020906007020160009091909190915060008201518160000160006101000a81548160ff02191690836002811115620004895762000488620008d9565b5b0217905550602082015181600101556040820151816002019080519060200190620004b692919062000536565b50606082015181600301906002620004d0929190620005c7565b50608082015181600501906002620004ea92919062000649565b5060a08201518160060160006101000a81548173ffffffffffffffffffffffffffffffffffffffff021916908373ffffffffffffffffffffffffffffffffffffffff1602179055505050565b82805462000544906200086d565b90600052602060002090601f016020900481019282620005685760008555620005b4565b82601f106200058357805160ff1916838001178555620005b4565b82800160010185558215620005b4579182015b82811115620005b357825182559160200191906001019062000596565b5b509050620005c39190620006ea565b5090565b826002810192821562000636579160200282015b82811115620006355782518260006101000a81548173ffffffffffffffffffffffffffffffffffffffff021916908373ffffffffffffffffffffffffffffffffffffffff16021790555091602001919060010190620005db565b5b509050620006459190620006ea565b5090565b826002601f01602090048101928215620006d75791602002820160005b83821115620006a657835183826101000a81548160ff021916908360ff160217905550926020019260010160208160000104928301926001030262000666565b8015620006d55782816101000a81549060ff0219169055600101602081600001049283019260010302620006a6565b505b509050620006e69190620006ea565b5090565b5b8082111562000705576000816000905550600101620006eb565b5090565b6000620007206200071a8462000801565b620007d8565b9050828152602081018484840111156200073f576200073e6200096b565b5b6200074c84828562000837565b509392505050565b600082601f8301126200076c576200076b62000966565b5b81516200077e84826020860162000709565b91505092915050565b600060208284031215620007a0576200079f62000975565b5b600082015167ffffffffffffffff811115620007c157620007c062000970565b5b620007cf8482850162000754565b91505092915050565b6000620007e4620007f7565b9050620007f28282620008a3565b919050565b6000604051905090565b600067ffffffffffffffff8211156200081f576200081e62000937565b5b6200082a826200097a565b9050602081019050919050565b60005b83811015620008575780820151818401526020810190506200083a565b8381111562000867576000848401525b50505050565b600060028204905060018216806200088657607f821691505b602082108114156200089d576200089c62000908565b5b50919050565b620008ae826200097a565b810181811067ffffffffffffffff82111715620008d057620008cf62000937565b5b80604052505050565b7f4e487b7100000000000000000000000000000000000000000000000000000000600052602160045260246000fd5b7f4e487b7100000000000000000000000000000000000000000000000000000000600052602260045260246000fd5b7f4e487b7100000000000000000000000000000000000000000000000000000000600052604160045260246000fd5b600080fd5b600080fd5b600080fd5b600080fd5b6000601f19601f8301169050919050565b6188fd806200099b6000396000f3fe608060405234801561001057600080fd5b50600436106102945760003560e01c8063703730a511610167578063bf034b69116100ce578063e985e9c511610087578063e985e9c5146108c6578063efa1c482146108f6578063f1da733914610914578063f242432a14610932578063f2fde38b1461094e578063f71d96cb1461096a57610294565b8063bf034b69146107d9578063bf103a4d1461080c578063c4e41b221461083c578063c87b56dd1461085a578063d2198cc51461088a578063de96cefc146108a857610294565b80639e4ecd11116101205780639e4ecd11146107075780639ec40aa314610725578063a1b4f57c14610741578063a22cb46514610771578063ba2749561461078d578063bd85b039146107a957610294565b8063703730a514610658578063715018a614610676578063845f433b146106805780638da5cb5b1461069c578063996d7bea146106ba5780639b09cc87146106d657610294565b806318160ddd1161020b5780634e1273f4116101c45780634e1273f4146105595780634f558e79146105895780635c12cd4b146105b95780635c93fc3d146105e9578063606d2e96146106075780636c0360eb1461063a57610294565b806318160ddd1461045f5780632711162e1461047d5780632ca04522146104ad5780632eb2c2d6146104dd5780633835e2b5146104f95780634b1146911461052957610294565b806309c95e101161025d57806309c95e10146103515780630daea2cd146103815780630e89341c1461039f57806310898e4c146103cf5780631107ae3d146103ff57806316801d171461042f57610294565b8062fdd58e14610299578063015a3792146102c957806301ffc9a7146102e757806302fe5305146103175780630677aa4e14610333575b600080fd5b6102b360048036038101906102ae9190615eed565b61099e565b6040516102c091906176c4565b60405180910390f35b6102d1610a67565b6040516102de91906170ac565b60405180910390f35b61030160048036038101906102fc9190615fa5565b610b76565b60405161030e9190617149565b60405180910390f35b610331600480360381019061032c9190615fff565b610c58565b005b61033b610c6c565b60405161034891906176c4565b60405180910390f35b61036b60048036038101906103669190615cda565b610c71565b6040516103789190617149565b60405180910390f35b610389610ccd565b60405161039691906176c4565b60405180910390f35b6103b960048036038101906103b491906160c0565b610cd2565b6040516103c691906171b0565b60405180910390f35b6103e960048036038101906103e49190615cda565b610d66565b6040516103f69190617680565b60405180910390f35b61041960048036038101906104149190615fff565b610ed9565b6040516104269190617149565b60405180910390f35b61044960048036038101906104449190615fff565b610f14565b604051610456919061765e565b60405180910390f35b6104676111c9565b60405161047491906176c4565b60405180910390f35b61049760048036038101906104929190615cda565b6111cf565b6040516104a491906176c4565b60405180910390f35b6104c760048036038101906104c29190615fff565b6111e7565b6040516104d4919061765e565b60405180910390f35b6104f760048036038101906104f29190615d47565b6114c3565b005b610513600480360381019061050e9190615fff565b611564565b60405161052091906176c4565b60405180910390f35b610543600480360381019061053e9190615cda565b611592565b60405161055091906176c4565b60405180910390f35b610573600480360381019061056e9190615f2d565b6115aa565b60405161058091906170f0565b60405180910390f35b6105a3600480360381019061059e91906160c0565b6116c3565b6040516105b09190617149565b60405180910390f35b6105d360048036038101906105ce9190615cda565b6116d7565b6040516105e091906176a2565b60405180910390f35b6105f16118b1565b6040516105fe919061708a565b60405180910390f35b610621600480360381019061061c91906160c0565b611b23565b6040516106319493929190617164565b60405180910390f35b610642611c18565b60405161064f91906171b0565b60405180910390f35b610660611ca6565b60405161066d91906176c4565b60405180910390f35b61067e611cab565b005b61069a60048036038101906106959190616048565b611cbf565b005b6106a4611eb9565b6040516106b19190616f38565b60405180910390f35b6106d460048036038101906106cf9190615fff565b611ee3565b005b6106f060048036038101906106eb9190615fff565b612072565b6040516106fe9291906176df565b60405180910390f35b61070f6120cc565b60405161071c91906176c4565b60405180910390f35b61073f600480360381019061073a9190615fff565b6120d1565b005b61075b60048036038101906107569190615fff565b612173565b604051610768919061765e565b60405180910390f35b61078b60048036038101906107869190615ead565b612516565b005b6107a760048036038101906107a291906160ed565b61252c565b005b6107c360048036038101906107be91906160c0565b612905565b6040516107d091906176c4565b60405180910390f35b6107f360048036038101906107ee91906160c0565b612922565b60405161080394939291906171d2565b60405180910390f35b61082660048036038101906108219190615cda565b6129ea565b6040516108339190617149565b60405180910390f35b610844612a46565b60405161085191906176c4565b60405180910390f35b610874600480360381019061086f91906160c0565b612a50565b60405161088191906171b0565b60405180910390f35b610892612a84565b60405161089f91906176c4565b60405180910390f35b6108b0612a89565b6040516108bd91906176c4565b60405180910390f35b6108e060048036038101906108db9190615d07565b612a8e565b6040516108ed9190617149565b60405180910390f35b6108fe612b22565b60405161090b91906170ce565b60405180910390f35b61091c612c98565b60405161092991906176c4565b60405180910390f35b61094c60048036038101906109479190615e16565b612c9d565b005b61096860048036038101906109639190615cda565b612d3e565b005b610984600480360381019061097f91906160c0565b612dc2565b604051610995959493929190617015565b60405180910390f35b60008073ffffffffffffffffffffffffffffffffffffffff168373ffffffffffffffffffffffffffffffffffffffff161415610a0f576040517f08c379a0000000000000000000000000000000000000000000000000000000008152600401610a06906172de565b60405180910390fd5b60008083815260200190815260200160002060008473ffffffffffffffffffffffffffffffffffffffff1673ffffffffffffffffffffffffffffffffffffffff16815260200190815260200160002054905092915050565b6060600b805480602002602001604051908101604052809291908181526020016000905b82821015610b6d5783829060005260206000209060040201604051806080016040529081600082018054610abe90617c54565b80601f0160208091040260200160405190810160405280929190818152602001828054610aea90617c54565b8015610b375780601f10610b0c57610100808354040283529160200191610b37565b820191906000526020600020905b815481529060010190602001808311610b1a57829003601f168201915b50505050508152602001600182015481526020016002820154815260200160038201548152505081526020019060010190610a8b565b50505050905090565b60007fd9b67a26000000000000000000000000000000000000000000000000000000007bffffffffffffffffffffffffffffffffffffffffffffffffffffffff1916827bffffffffffffffffffffffffffffffffffffffffffffffffffffffff19161480610c4157507f0e89341c000000000000000000000000000000000000000000000000000000007bffffffffffffffffffffffffffffffffffffffffffffffffffffffff1916827bffffffffffffffffffffffffffffffffffffffffffffffffffffffff1916145b80610c515750610c5082612ebd565b5b9050919050565b610c60612f27565b610c6981612fa5565b50565b600381565b600080600760008473ffffffffffffffffffffffffffffffffffffffff1673ffffffffffffffffffffffffffffffffffffffff168152602001908152602001600020541415610cc35760009050610cc8565b600190505b919050565b600a81565b606060028054610ce190617c54565b80601f0160208091040260200160405190810160405280929190818152602001828054610d0d90617c54565b8015610d5a5780601f10610d2f57610100808354040283529160200191610d5a565b820191906000526020600020905b815481529060010190602001808311610d3d57829003601f168201915b50505050509050919050565b610d6e615766565b610d77826129ea565b610db6576040517f08c379a0000000000000000000000000000000000000000000000000000000008152600401610dad9061725e565b60405180910390fd5b600b600860008473ffffffffffffffffffffffffffffffffffffffff1673ffffffffffffffffffffffffffffffffffffffff1681526020019081526020016000205481548110610e0957610e08617e76565b5b9060005260206000209060040201604051806080016040529081600082018054610e3290617c54565b80601f0160208091040260200160405190810160405280929190818152602001828054610e5e90617c54565b8015610eab5780601f10610e8057610100808354040283529160200191610eab565b820191906000526020600020905b815481529060010190602001808311610e8e57829003601f168201915b5050505050815260200160018201548152602001600282015481526020016003820154815250509050919050565b600080600983604051610eec9190616e7e565b9081526020016040518091039020541415610f0a5760009050610f0f565b600190505b919050565b610f1c61578e565b610f2582610ed9565b610f64576040517f08c379a0000000000000000000000000000000000000000000000000000000008152600401610f5b9061749e565b60405180910390fd5b600c600983604051610f769190616e7e565b90815260200160405180910390205481548110610f9657610f95617e76565b5b90600052602060002090600702016040518060c00160405290816000820160009054906101000a900460ff166002811115610fd457610fd3617e18565b5b6002811115610fe657610fe5617e18565b5b81526020016001820154815260200160028201805461100490617c54565b80601f016020809104026020016040519081016040528092919081815260200182805461103090617c54565b801561107d5780601f106110525761010080835404028352916020019161107d565b820191906000526020600020905b81548152906001019060200180831161106057829003601f168201915b50505050508152602001600382016002806020026040519081016040528092919082600280156110f8576020028201915b8160009054906101000a900473ffffffffffffffffffffffffffffffffffffffff1673ffffffffffffffffffffffffffffffffffffffff16815260200190600101908083116110ae575b5050505050815260200160058201600280602002604051908101604052809291908260028015611163576020028201916000905b82829054906101000a900460ff1660ff168152602001906001019060208260000104928301926001038202915080841161112c5790505b505050505081526020016006820160009054906101000a900473ffffffffffffffffffffffffffffffffffffffff1673ffffffffffffffffffffffffffffffffffffffff1673ffffffffffffffffffffffffffffffffffffffff16815250509050919050565b60065481565b60086020528060005260406000206000915090505481565b6111ef61578e565b6111f833610c71565b611237576040517f08c379a000000000000000000000000000000000000000000000000000000000815260040161122e9061733e565b60405180910390fd5b61124082610ed9565b15611280576040517f08c379a0000000000000000000000000000000000000000000000000000000008152600401611277906173be565b60405180910390fd5b60008260405160200161129391906171b0565b60405160208183030381529060405280519060200120905060006040518060c00160405280600060028111156112cc576112cb617e18565b5b815260200183815260200185815260200160405180604001604052803373ffffffffffffffffffffffffffffffffffffffff1673ffffffffffffffffffffffffffffffffffffffff168152602001600073ffffffffffffffffffffffffffffffffffffffff1673ffffffffffffffffffffffffffffffffffffffff1681525081526020016040518060400160405280600060ff168152602001600060ff168152508152602001600073ffffffffffffffffffffffffffffffffffffffff1681525090506000600c805490509050806009866040516113aa9190616e7e565b908152602001604051809103902081905550600c82908060018154018082558091505060019003906000526020600020906007020160009091909190915060008201518160000160006101000a81548160ff0219169083600281111561141357611412617e18565b5b021790555060208201518160010155604082015181600201908051906020019061143e9291906157fb565b50606082015181600301906002611456929190615881565b5060808201518160050190600261146e9291906158fe565b5060a08201518160060160006101000a81548173ffffffffffffffffffffffffffffffffffffffff021916908373ffffffffffffffffffffffffffffffffffffffff1602179055505050819350505050919050565b6114cb612fbf565b73ffffffffffffffffffffffffffffffffffffffff168573ffffffffffffffffffffffffffffffffffffffff16148061151157506115108561150b612fbf565b612a8e565b5b611550576040517f08c379a00000000000000000000000000000000000000000000000000000000081526004016115479061731e565b60405180910390fd5b61155d8585858585612fc7565b5050505050565b6009818051602081018201805184825260208301602085012081835280955050505050506000915090505481565b60076020528060005260406000206000915090505481565b606081518351146115f0576040517f08c379a00000000000000000000000000000000000000000000000000000000081526004016115e79061753e565b60405180910390fd5b6000835167ffffffffffffffff81111561160d5761160c617ea5565b5b60405190808252806020026020018201604052801561163b5781602001602082028036833780820191505090505b50905060005b84518110156116b8576116888582815181106116605761165f617e76565b5b602002602001015185838151811061167b5761167a617e76565b5b602002602001015161099e565b82828151811061169b5761169a617e76565b5b602002602001018181525050806116b190617cb7565b9050611641565b508091505092915050565b6000806116cf83612905565b119050919050565b6116df615998565b6116e882610c71565b611727576040517f08c379a000000000000000000000000000000000000000000000000000000000815260040161171e9061763e565b60405180910390fd5b600a600760008473ffffffffffffffffffffffffffffffffffffffff1673ffffffffffffffffffffffffffffffffffffffff168152602001908152602001600020548154811061177a57611779617e76565b5b90600052602060002090600502016040518060a00160405290816000820160009054906101000a900473ffffffffffffffffffffffffffffffffffffffff1673ffffffffffffffffffffffffffffffffffffffff1673ffffffffffffffffffffffffffffffffffffffff1681526020016001820180546117f990617c54565b80601f016020809104026020016040519081016040528092919081815260200182805461182590617c54565b80156118725780601f1061184757610100808354040283529160200191611872565b820191906000526020600020905b81548152906001019060200180831161185557829003601f168201915b5050505050815260200160028201548152602001600382015481526020016004820160009054906101000a900460ff1615151515815250509050919050565b6060600c805480602002602001604051908101604052809291908181526020016000905b82821015611b1a57838290600052602060002090600702016040518060c00160405290816000820160009054906101000a900460ff16600281111561191d5761191c617e18565b5b600281111561192f5761192e617e18565b5b81526020016001820154815260200160028201805461194d90617c54565b80601f016020809104026020016040519081016040528092919081815260200182805461197990617c54565b80156119c65780601f1061199b576101008083540402835291602001916119c6565b820191906000526020600020905b8154815290600101906020018083116119a957829003601f168201915b5050505050815260200160038201600280602002604051908101604052809291908260028015611a41576020028201915b8160009054906101000a900473ffffffffffffffffffffffffffffffffffffffff1673ffffffffffffffffffffffffffffffffffffffff16815260200190600101908083116119f7575b5050505050815260200160058201600280602002604051908101604052809291908260028015611aac576020028201916000905b82829054906101000a900460ff1660ff1681526020019060010190602082600001049283019260010382029150808411611a755790505b505050505081526020016006820160009054906101000a900473ffffffffffffffffffffffffffffffffffffffff1673ffffffffffffffffffffffffffffffffffffffff1673ffffffffffffffffffffffffffffffffffffffff1681525050815260200190600101906118d5565b50505050905090565b600c8181548110611b3357600080fd5b90600052602060002090600702016000915090508060000160009054906101000a900460ff1690806001015490806002018054611b6f90617c54565b80601f0160208091040260200160405190810160405280929190818152602001828054611b9b90617c54565b8015611be85780601f10611bbd57610100808354040283529160200191611be8565b820191906000526020600020905b815481529060010190602001808311611bcb57829003601f168201915b5050505050908060060160009054906101000a900473ffffffffffffffffffffffffffffffffffffffff16905084565b60058054611c2590617c54565b80601f0160208091040260200160405190810160405280929190818152602001828054611c5190617c54565b8015611c9e5780601f10611c7357610100808354040283529160200191611c9e565b820191906000526020600020905b815481529060010190602001808311611c8157829003601f168201915b505050505081565b600281565b611cb3612f27565b611cbd60006132e9565b565b611cc833610c71565b15611d08576040517f08c379a0000000000000000000000000000000000000000000000000000000008152600401611cff9061741e565b60405180910390fd5b6000600a805490509050600a6040518060a001604052803373ffffffffffffffffffffffffffffffffffffffff168152602001858152602001600a81526020016019815260200160001515815250908060018154018082558091505060019003906000526020600020906005020160009091909190915060008201518160000160006101000a81548173ffffffffffffffffffffffffffffffffffffffff021916908373ffffffffffffffffffffffffffffffffffffffff1602179055506020820151816001019080519060200190611de29291906157fb565b50604082015181600201556060820151816003015560808201518160040160006101000a81548160ff021916908315150217905550505080600760003373ffffffffffffffffffffffffffffffffffffffff1673ffffffffffffffffffffffffffffffffffffffff16815260200190815260200160002081905550611e66826120d1565b3373ffffffffffffffffffffffffffffffffffffffff167f81ef79d1cda814a60c0fc60792e648a06d9c6bae67176346d1cc8b63030bfccd84604051611eac91906171b0565b60405180910390a2505050565b6000600360009054906101000a900473ffffffffffffffffffffffffffffffffffffffff16905090565b6000611eee82610f14565b90503373ffffffffffffffffffffffffffffffffffffffff168160600151600060028110611f1f57611f1e617e76565b5b602002015173ffffffffffffffffffffffffffffffffffffffff161480611f8d57503373ffffffffffffffffffffffffffffffffffffffff168160600151600160028110611f7057611f6f617e76565b5b602002015173ffffffffffffffffffffffffffffffffffffffff16145b611fcc576040517f08c379a0000000000000000000000000000000000000000000000000000000008152600401611fc39061761e565b60405180910390fd5b3373ffffffffffffffffffffffffffffffffffffffff168160600151600060028110611ffb57611ffa617e76565b5b602002015173ffffffffffffffffffffffffffffffffffffffff161461204657612041816060015160006002811061203657612035617e76565b5b6020020151826133af565b61206d565b61206c816060015160016002811061206157612060617e76565b5b6020020151826133af565b5b505050565b600080600061208084610f14565b9050806080015160006002811061209a57612099617e76565b5b602002015160ff16925080608001516001600281106120bc576120bb617e76565b5b602002015160ff16915050915091565b600581565b6120da336116d7565b608001511561211e576040517f08c379a0000000000000000000000000000000000000000000000000000000008152600401612115906175de565b60405180910390fd5b61212733610c71565b612166576040517f08c379a000000000000000000000000000000000000000000000000000000000815260040161215d9061733e565b60405180910390fd5b61216f81613787565b5050565b61217b61578e565b600061218683610f14565b90506000600281111561219c5761219b617e18565b5b816000015160028111156121b3576121b2617e18565b5b146121f3576040517f08c379a00000000000000000000000000000000000000000000000000000000081526004016121ea9061739e565b60405180910390fd5b3373ffffffffffffffffffffffffffffffffffffffff16816060015160006002811061222257612221617e76565b5b602002015173ffffffffffffffffffffffffffffffffffffffff16141561227e576040517f08c379a00000000000000000000000000000000000000000000000000000000081526004016122759061743e565b60405180910390fd5b612287336116d7565b60800151156122cb576040517f08c379a00000000000000000000000000000000000000000000000000000000081526004016122c2906172fe565b60405180910390fd5b6001816000019060028111156122e4576122e3617e18565b5b908160028111156122f8576122f7617e18565b5b8152505033816060015160016002811061231557612314617e76565b5b602002019073ffffffffffffffffffffffffffffffffffffffff16908173ffffffffffffffffffffffffffffffffffffffff168152505061235683826139b0565b6001600a60076000846060015160006002811061237657612375617e76565b5b602002015173ffffffffffffffffffffffffffffffffffffffff1673ffffffffffffffffffffffffffffffffffffffff16815260200190815260200160002054815481106123c7576123c6617e76565b5b906000526020600020906005020160040160006101000a81548160ff0219169083151502179055506001600a60076000846060015160016002811061240f5761240e617e76565b5b602002015173ffffffffffffffffffffffffffffffffffffffff1673ffffffffffffffffffffffffffffffffffffffff16815260200190815260200160002054815481106124605761245f617e76565b5b906000526020600020906005020160040160006101000a81548160ff0219169083151502179055503373ffffffffffffffffffffffffffffffffffffffff1681606001516000600281106124b7576124b6617e76565b5b602002015173ffffffffffffffffffffffffffffffffffffffff167f024187b16c217a79f8d8e6252b542ec6e278fa91304acd9cfd866f2bbf00bd08836040015160405161250591906171b0565b60405180910390a380915050919050565b612528612521612fbf565b8383613b0e565b5050565b600061253782610f14565b90506001600281111561254d5761254c617e18565b5b8160000151600281111561256457612563617e18565b5b146125a4576040517f08c379a000000000000000000000000000000000000000000000000000000000815260040161259b9061755e565b60405180910390fd5b6002808111156125b7576125b6617e18565b5b816000015160028111156125ce576125cd617e18565b5b141561260f576040517f08c379a00000000000000000000000000000000000000000000000000000000081526004016126069061737e565b60405180910390fd5b806060015160006002811061262757612626617e76565b5b602002015173ffffffffffffffffffffffffffffffffffffffff163373ffffffffffffffffffffffffffffffffffffffff1614806126ac5750806060015160016002811061267857612677617e76565b5b602002015173ffffffffffffffffffffffffffffffffffffffff163373ffffffffffffffffffffffffffffffffffffffff16145b6126eb576040517f08c379a00000000000000000000000000000000000000000000000000000000081526004016126e2906174de565b60405180910390fd5b600081608001513373ffffffffffffffffffffffffffffffffffffffff16836060015160006002811061272157612720617e76565b5b602002015173ffffffffffffffffffffffffffffffffffffffff161461274857600161274b565b60005b60ff166002811061275f5761275e617e76565b5b602002015160ff16146127a7576040517f08c379a000000000000000000000000000000000000000000000000000000000815260040161279e9061723e565b60405180910390fd5b61280d3373ffffffffffffffffffffffffffffffffffffffff1682606001516000600281106127d9576127d8617e76565b5b602002015173ffffffffffffffffffffffffffffffffffffffff1614612800576001612803565b60005b60ff168484613c7b565b61281682610f14565b9050600080826080015160016002811061283357612832617e76565b5b602002015160ff161461284757600161284a565b60005b6000836080015160006002811061286457612863617e76565b5b602002015160ff161461287857600161287b565b60005b60026128879190617b1c565b6128919190617b1c565b60ff169050600181146128a55760006128a8565b60015b1515836040516128b89190616e7e565b60405180910390207f54b82b77e7ae55a8e6c9e89deba70c7191dea2a3b08ae647b380e9f981d6a0f860405160405180910390a360008114156128ff576128fe83613dad565b5b50505050565b600060046000838152602001908152602001600020549050919050565b600b818154811061293257600080fd5b906000526020600020906004020160009150905080600001805461295590617c54565b80601f016020809104026020016040519081016040528092919081815260200182805461298190617c54565b80156129ce5780601f106129a3576101008083540402835291602001916129ce565b820191906000526020600020905b8154815290600101906020018083116129b157829003601f168201915b5050505050908060010154908060020154908060030154905084565b600080600860008473ffffffffffffffffffffffffffffffffffffffff1673ffffffffffffffffffffffffffffffffffffffff168152602001908152602001600020541415612a3c5760009050612a41565b600190505b919050565b6000600654905090565b60606005612a5d83613f32565b604051602001612a6e929190616e95565b6040516020818303038152906040529050919050565b600081565b600181565b6000600160008473ffffffffffffffffffffffffffffffffffffffff1673ffffffffffffffffffffffffffffffffffffffff16815260200190815260200160002060008373ffffffffffffffffffffffffffffffffffffffff1673ffffffffffffffffffffffffffffffffffffffff16815260200190815260200160002060009054906101000a900460ff16905092915050565b6060600a805480602002602001604051908101604052809291908181526020016000905b82821015612c8f57838290600052602060002090600502016040518060a00160405290816000820160009054906101000a900473ffffffffffffffffffffffffffffffffffffffff1673ffffffffffffffffffffffffffffffffffffffff1673ffffffffffffffffffffffffffffffffffffffff168152602001600182018054612bcf90617c54565b80601f0160208091040260200160405190810160405280929190818152602001828054612bfb90617c54565b8015612c485780601f10612c1d57610100808354040283529160200191612c48565b820191906000526020600020905b815481529060010190602001808311612c2b57829003601f168201915b5050505050815260200160028201548152602001600382015481526020016004820160009054906101000a900460ff16151515158152505081526020019060010190612b46565b50505050905090565b600481565b612ca5612fbf565b73ffffffffffffffffffffffffffffffffffffffff168573ffffffffffffffffffffffffffffffffffffffff161480612ceb5750612cea85612ce5612fbf565b612a8e565b5b612d2a576040517f08c379a0000000000000000000000000000000000000000000000000000000008152600401612d219061731e565b60405180910390fd5b612d3785858585856140bb565b5050505050565b612d46612f27565b600073ffffffffffffffffffffffffffffffffffffffff168173ffffffffffffffffffffffffffffffffffffffff161415612db6576040517f08c379a0000000000000000000000000000000000000000000000000000000008152600401612dad9061727e565b60405180910390fd5b612dbf816132e9565b50565b600a8181548110612dd257600080fd5b90600052602060002090600502016000915090508060000160009054906101000a900473ffffffffffffffffffffffffffffffffffffffff1690806001018054612e1b90617c54565b80601f0160208091040260200160405190810160405280929190818152602001828054612e4790617c54565b8015612e945780601f10612e6957610100808354040283529160200191612e94565b820191906000526020600020905b815481529060010190602001808311612e7757829003601f168201915b5050505050908060020154908060030154908060040160009054906101000a900460ff16905085565b60007f01ffc9a7000000000000000000000000000000000000000000000000000000007bffffffffffffffffffffffffffffffffffffffffffffffffffffffff1916827bffffffffffffffffffffffffffffffffffffffffffffffffffffffff1916149050919050565b612f2f612fbf565b73ffffffffffffffffffffffffffffffffffffffff16612f4d611eb9565b73ffffffffffffffffffffffffffffffffffffffff1614612fa3576040517f08c379a0000000000000000000000000000000000000000000000000000000008152600401612f9a9061747e565b60405180910390fd5b565b8060029080519060200190612fbb9291906157fb565b5050565b600033905090565b815183511461300b576040517f08c379a00000000000000000000000000000000000000000000000000000000081526004016130029061757e565b60405180910390fd5b600073ffffffffffffffffffffffffffffffffffffffff168473ffffffffffffffffffffffffffffffffffffffff16141561307b576040517f08c379a0000000000000000000000000000000000000000000000000000000008152600401613072906173fe565b60405180910390fd5b6000613085612fbf565b9050613095818787878787614357565b60005b84518110156132465760008582815181106130b6576130b5617e76565b5b6020026020010151905060008583815181106130d5576130d4617e76565b5b60200260200101519050600080600084815260200190815260200160002060008b73ffffffffffffffffffffffffffffffffffffffff1673ffffffffffffffffffffffffffffffffffffffff16815260200190815260200160002054905081811015613176576040517f08c379a000000000000000000000000000000000000000000000000000000000815260040161316d9061745e565b60405180910390fd5b81810360008085815260200190815260200160002060008c73ffffffffffffffffffffffffffffffffffffffff1673ffffffffffffffffffffffffffffffffffffffff168152602001908152602001600020819055508160008085815260200190815260200160002060008b73ffffffffffffffffffffffffffffffffffffffff1673ffffffffffffffffffffffffffffffffffffffff168152602001908152602001600020600082825461322b91906179d0565b925050819055505050508061323f90617cb7565b9050613098565b508473ffffffffffffffffffffffffffffffffffffffff168673ffffffffffffffffffffffffffffffffffffffff168273ffffffffffffffffffffffffffffffffffffffff167f4a39dc06d4c0dbc64b70af90fd698a233a518aa5d07e595d983b8c0526c8f7fb87876040516132bd929190617112565b60405180910390a46132d381878787878761436d565b6132e1818787878787614375565b505050505050565b6000600360009054906101000a900473ffffffffffffffffffffffffffffffffffffffff16905081600360006101000a81548173ffffffffffffffffffffffffffffffffffffffff021916908373ffffffffffffffffffffffffffffffffffffffff1602179055508173ffffffffffffffffffffffffffffffffffffffff168173ffffffffffffffffffffffffffffffffffffffff167f8be0079c531659141344cd1fd0a4f28419497f9722a3daafe3b4186f6b6457e060405160405180910390a35050565b6133b761578e565b6002808111156133ca576133c9617e18565b5b826000015160028111156133e1576133e0617e18565b5b1415613422576040517f08c379a0000000000000000000000000000000000000000000000000000000008152600401613419906172be565b60405180910390fd5b60028260000190600281111561343b5761343a617e18565b5b9081600281111561344f5761344e617e18565b5b81525050828260a0019073ffffffffffffffffffffffffffffffffffffffff16908173ffffffffffffffffffffffffffffffffffffffff16815250506134998260400151836139b0565b60006007600084606001516000600281106134b7576134b6617e76565b5b602002015173ffffffffffffffffffffffffffffffffffffffff1673ffffffffffffffffffffffffffffffffffffffff168152602001908152602001600020549050600060076000856060015160016002811061351757613516617e76565b5b602002015173ffffffffffffffffffffffffffffffffffffffff1673ffffffffffffffffffffffffffffffffffffffff1681526020019081526020016000205490506000600a838154811061356f5761356e617e76565b5b906000526020600020906005020160040160006101000a81548160ff0219169083151502179055506019600a83815481106135ad576135ac617e76565b5b906000526020600020906005020160030181905550600a8083815481106135d7576135d6617e76565b5b9060005260206000209060050201600201819055506000600a828154811061360257613601617e76565b5b906000526020600020906005020160040160006101000a81548160ff0219169083151502179055506019600a82815481106136405761363f617e76565b5b906000526020600020906005020160030181905550600a80828154811061366a57613669617e76565b5b9060005260206000209060050201600201819055506000846060015160006002811061369957613698617e76565b5b602002015173ffffffffffffffffffffffffffffffffffffffff168673ffffffffffffffffffffffffffffffffffffffff16146136f25784606001516000600281106136e8576136e7617e76565b5b6020020151613710565b846060015160016002811061370a57613709617e76565b5b60200201515b90508073ffffffffffffffffffffffffffffffffffffffff168673ffffffffffffffffffffffffffffffffffffffff167fae6e5eafb6cd1cb4b139e7a0b9140aa182ee7d50e99f50d660156f79212acbc0876040015160405161377391906171b0565b60405180910390a384935050505092915050565b61378f615766565b600061379c600a3361455c565b9050600081600a6137ad9190617ae8565b90506000606442336040516020016137c6929190616ecf565b6040516020818303038152906040528051906020012060001c6137e99190617d58565b90506006816137f89190617d89565b905060008160ff16141561381557808061381190617d00565b9150505b600060405180608001604052808781526020018360ff1681526020018581526020018481525090506000600b805490509050600b829080600181540180825580915050600190039060005260206000209060040201600090919091909150600082015181600001908051906020019061388f9291906157fb565b50602082015181600101556040820151816002015560608201518160030155505080600860003373ffffffffffffffffffffffffffffffffffffffff1673ffffffffffffffffffffffffffffffffffffffff16815260200190815260200160002081905550613939338460ff1660016040518060400160405280600381526020017f30783000000000000000000000000000000000000000000000000000000000008152506145bd565b6006600081548092919061394c90617cb7565b91905055503373ffffffffffffffffffffffffffffffffffffffff167fca8ab07e9ed17d119729fc652dd24df9d8430ca862dda4631925b5b4b99da36284878760405161399b93929190617708565b60405180910390a28195505050505050919050565b6139b982610ed9565b6139f8576040517f08c379a00000000000000000000000000000000000000000000000000000000081526004016139ef9061735e565b60405180910390fd5b80600c600984604051613a0b9190616e7e565b90815260200160405180910390205481548110613a2b57613a2a617e76565b5b906000526020600020906007020160008201518160000160006101000a81548160ff02191690836002811115613a6457613a63617e18565b5b0217905550602082015181600101556040820151816002019080519060200190613a8f9291906157fb565b50606082015181600301906002613aa7929190615881565b50608082015181600501906002613abf9291906158fe565b5060a08201518160060160006101000a81548173ffffffffffffffffffffffffffffffffffffffff021916908373ffffffffffffffffffffffffffffffffffffffff1602179055509050505050565b8173ffffffffffffffffffffffffffffffffffffffff168373ffffffffffffffffffffffffffffffffffffffff161415613b7d576040517f08c379a0000000000000000000000000000000000000000000000000000000008152600401613b749061751e565b60405180910390fd5b80600160008573ffffffffffffffffffffffffffffffffffffffff1673ffffffffffffffffffffffffffffffffffffffff16815260200190815260200160002060008473ffffffffffffffffffffffffffffffffffffffff1673ffffffffffffffffffffffffffffffffffffffff16815260200190815260200160002060006101000a81548160ff0219169083151502179055508173ffffffffffffffffffffffffffffffffffffffff168373ffffffffffffffffffffffffffffffffffffffff167f17307eab39ab6107e8899845ad3d59bd9653f200f220920489ca2b5937696c3183604051613c6e9190617149565b60405180910390a3505050565b60018260ff161480613c90575060028260ff16145b613ccf576040517f08c379a0000000000000000000000000000000000000000000000000000000008152600401613cc6906173de565b60405180910390fd5b60018260ff1614613ce1576001613cf3565b6003613cec336116d7565b6040015110155b613d32576040517f08c379a0000000000000000000000000000000000000000000000000000000008152600401613d29906174fe565b60405180910390fd5b81600c600983604051613d459190616e7e565b90815260200160405180910390205481548110613d6557613d64617e76565b5b90600052602060002090600702016005018460028110613d8857613d87617e76565b5b602091828204019190066101000a81548160ff021916908360ff160217905550505050565b6000613db882610f14565b90508060600151600060028110613dd257613dd1617e76565b5b602002015173ffffffffffffffffffffffffffffffffffffffff163373ffffffffffffffffffffffffffffffffffffffff161480613e5757508060600151600160028110613e2357613e22617e76565b5b602002015173ffffffffffffffffffffffffffffffffffffffff163373ffffffffffffffffffffffffffffffffffffffff16145b613e96576040517f08c379a0000000000000000000000000000000000000000000000000000000008152600401613e8d9061759e565b60405180910390fd5b60008160800151600060028110613eb057613eaf617e76565b5b602002015160ff1614158015613ee6575060008160800151600160028110613edb57613eda617e76565b5b602002015160ff1614155b613f25576040517f08c379a0000000000000000000000000000000000000000000000000000000008152600401613f1c9061729e565b60405180910390fd5b613f2e8161476e565b5050565b60606000821415613f7a576040518060400160405280600181526020017f300000000000000000000000000000000000000000000000000000000000000081525090506140b6565b600082905060005b60008214613fac578080613f9590617cb7565b915050600a82613fa59190617a5d565b9150613f82565b60008167ffffffffffffffff811115613fc857613fc7617ea5565b5b6040519080825280601f01601f191660200182016040528015613ffa5781602001600182028036833780820191505090505b50905060008290505b600086146140ae576001816140189190617ae8565b90506000600a808861402a9190617a5d565b6140349190617a8e565b8761403f9190617ae8565b603061404b9190617a26565b905060008160f81b90508084848151811061406957614068617e76565b5b60200101907effffffffffffffffffffffffffffffffffffffffffffffffffffffffffffff1916908160001a905350600a886140a59190617a5d565b97505050614003565b819450505050505b919050565b600073ffffffffffffffffffffffffffffffffffffffff168473ffffffffffffffffffffffffffffffffffffffff16141561412b576040517f08c379a0000000000000000000000000000000000000000000000000000000008152600401614122906173fe565b60405180910390fd5b6000614135612fbf565b9050600061414285615308565b9050600061414f85615308565b905061415f838989858589614357565b600080600088815260200190815260200160002060008a73ffffffffffffffffffffffffffffffffffffffff1673ffffffffffffffffffffffffffffffffffffffff168152602001908152602001600020549050858110156141f6576040517f08c379a00000000000000000000000000000000000000000000000000000000081526004016141ed9061745e565b60405180910390fd5b85810360008089815260200190815260200160002060008b73ffffffffffffffffffffffffffffffffffffffff1673ffffffffffffffffffffffffffffffffffffffff168152602001908152602001600020819055508560008089815260200190815260200160002060008a73ffffffffffffffffffffffffffffffffffffffff1673ffffffffffffffffffffffffffffffffffffffff16815260200190815260200160002060008282546142ab91906179d0565b925050819055508773ffffffffffffffffffffffffffffffffffffffff168973ffffffffffffffffffffffffffffffffffffffff168573ffffffffffffffffffffffffffffffffffffffff167fc3d58168c5ae7397731d063d5bbf3d657854427343f4c083240f7aacaa2d0f628a8a6040516143289291906176df565b60405180910390a461433e848a8a86868a61436d565b61434c848a8a8a8a8a615382565b505050505050505050565b614365868686868686615569565b505050505050565b505050505050565b6143948473ffffffffffffffffffffffffffffffffffffffff1661573b565b15614554578373ffffffffffffffffffffffffffffffffffffffff1663bc197c8187878686866040518663ffffffff1660e01b81526004016143da959493929190616f53565b602060405180830381600087803b1580156143f457600080fd5b505af192505050801561442557506040513d601f19601f820116820180604052508101906144229190615fd2565b60015b6144cb57614431617ed4565b806308c379a0141561448e57506144466187aa565b806144515750614490565b806040517f08c379a000000000000000000000000000000000000000000000000000000000815260040161448591906171b0565b60405180910390fd5b505b6040517f08c379a00000000000000000000000000000000000000000000000000000000081526004016144c2906175fe565b60405180910390fd5b63bc197c8160e01b7bffffffffffffffffffffffffffffffffffffffffffffffffffffffff1916817bffffffffffffffffffffffffffffffffffffffffffffffffffffffff191614614552576040517f08c379a00000000000000000000000000000000000000000000000000000000081526004016145499061721e565b60405180910390fd5b505b505050505050565b60008044428460405160200161457493929190616efb565b6040516020818303038152906040528051906020012060001c9050838161459b9190617d58565b915060008214156145b6576002846145b39190617a5d565b91505b5092915050565b600073ffffffffffffffffffffffffffffffffffffffff168473ffffffffffffffffffffffffffffffffffffffff16141561462d576040517f08c379a0000000000000000000000000000000000000000000000000000000008152600401614624906175be565b60405180910390fd5b6000614637612fbf565b9050600061464485615308565b9050600061465185615308565b905061466283600089858589614357565b8460008088815260200190815260200160002060008973ffffffffffffffffffffffffffffffffffffffff1673ffffffffffffffffffffffffffffffffffffffff16815260200190815260200160002060008282546146c191906179d0565b925050819055508673ffffffffffffffffffffffffffffffffffffffff16600073ffffffffffffffffffffffffffffffffffffffff168473ffffffffffffffffffffffffffffffffffffffff167fc3d58168c5ae7397731d063d5bbf3d657854427343f4c083240f7aacaa2d0f62898960405161473f9291906176df565b60405180910390a46147568360008985858961436d565b61476583600089898989615382565b50505050505050565b60006040518060a0016040528060076000856060015160006002811061479757614796617e76565b5b602002015173ffffffffffffffffffffffffffffffffffffffff1673ffffffffffffffffffffffffffffffffffffffff16815260200190815260200160002054815260200183608001516000600281106147f4576147f3617e76565b5b602002015160ff168152602001614826846060015160006002811061481c5761481b617e76565b5b60200201516116d7565b606001518152602001614854846060015160006002811061484a57614849617e76565b5b6020020151610d66565b604001518152602001614882846060015160006002811061487857614877617e76565b5b6020020151610d66565b60600151815250905060006040518060a001604052806007600086606001516001600281106148b4576148b3617e76565b5b602002015173ffffffffffffffffffffffffffffffffffffffff1673ffffffffffffffffffffffffffffffffffffffff168152602001908152602001600020548152602001846080015160016002811061491157614910617e76565b5b602002015160ff168152602001614943856060015160016002811061493957614938617e76565b5b60200201516116d7565b606001518152602001614971856060015160016002811061496757614966617e76565b5b6020020151610d66565b60400151815260200161499f856060015160016002811061499557614994617e76565b5b6020020151610d66565b60600151815250905060006040518060400160405280600073ffffffffffffffffffffffffffffffffffffffff1673ffffffffffffffffffffffffffffffffffffffff168152602001600073ffffffffffffffffffffffffffffffffffffffff1673ffffffffffffffffffffffffffffffffffffffff16815250905060018360200151148015614a33575060018260200151145b15614bc6578160400151836060015110614a7357614a6d8460600151600060028110614a6257614a61617e76565b5b6020020151856133af565b50614bc1565b8260400151826060015110614aae57614aa88460600151600160028110614a9d57614a9c617e76565b5b6020020151856133af565b50614bc0565b8160600151600a846000015181548110614acb57614aca617e76565b5b90600052602060002090600502016003016000828254614aeb9190617ae8565b925050819055508260600151600a836000015181548110614b0f57614b0e617e76565b5b90600052602060002090600502016003016000828254614b2f9190617ae8565b925050819055506003600a846000015181548110614b5057614b4f617e76565b5b90600052602060002090600502016002016000828254614b709190617ae8565b925050819055506003600a836000015181548110614b9157614b90617e76565b5b90600052602060002090600502016002016000828254614bb19190617ae8565b92505081905550836060015190505b5b614fe3565b60018360200151148015614bde575060028260200151145b15614d8357600082608001518360400151614bf991906179d0565b905080846060015110614c3257614c2c8560600151600060028110614c2157614c20617e76565b5b6020020151866133af565b50614d7d565b6000846060015184608001511115614c505783604001519050614ccb565b846060015182614c609190617ae8565b90508560600151600160028110614c7a57614c79617e76565b5b602002015183600060028110614c9357614c92617e76565b5b602002019073ffffffffffffffffffffffffffffffffffffffff16908173ffffffffffffffffffffffffffffffffffffffff16815250505b80600a856000015181548110614ce457614ce3617e76565b5b9060005260206000209060050201600301819055506003600a866000015181548110614d1357614d12617e76565b5b90600052602060002090600502016002016000828254614d339190617ae8565b925050819055506003600a856000015181548110614d5457614d53617e76565b5b90600052602060002090600502016002016000828254614d7491906179d0565b92505081905550505b50614fe2565b60028360200151148015614d9b575060018260200151145b15614f4057600083608001518460400151614db691906179d0565b905080836060015110614def57614de98560600151600160028110614dde57614ddd617e76565b5b6020020151866133af565b50614f3a565b6000836060015185608001511115614e0d5784604001519050614e88565b836060015182614e1d9190617ae8565b90508560600151600060028110614e3757614e36617e76565b5b602002015183600060028110614e5057614e4f617e76565b5b602002019073ffffffffffffffffffffffffffffffffffffffff16908173ffffffffffffffffffffffffffffffffffffffff16815250505b80600a866000015181548110614ea157614ea0617e76565b5b9060005260206000209060050201600301819055506003600a866000015181548110614ed057614ecf617e76565b5b90600052602060002090600502016002016000828254614ef091906179d0565b925050819055506003600a856000015181548110614f1157614f10617e76565b5b90600052602060002090600502016002016000828254614f319190617ae8565b92505081905550505b50614fe1565b60028360200151148015614f58575060028260200151145b15614fe0576003600a846000015181548110614f7757614f76617e76565b5b90600052602060002090600502016002016000828254614f9791906179d0565b925050819055506003600a836000015181548110614fb857614fb7617e76565b5b90600052602060002090600502016002016000828254614fd891906179d0565b925050819055505b5b5b5b7fc6bf860cbc15f7020f73993a671f01bbb1831a8a7a12c126ca735eb632e7577581604051615012919061706f565b60405180910390a16000846080015160006002811061503457615033617e76565b5b602002019060ff16908160ff16815250506000846080015160016002811061505f5761505e617e76565b5b602002019060ff16908160ff168152505061507e8460400151856139b0565b60006150a7600a866060015160006002811061509d5761509c617e76565b5b602002015161455c565b905080600b6008600088606001516000600281106150c8576150c7617e76565b5b602002015173ffffffffffffffffffffffffffffffffffffffff1673ffffffffffffffffffffffffffffffffffffffff168152602001908152602001600020548154811061511957615118617e76565b5b90600052602060002090600402016002018190555080600a61513b9190617ae8565b600b60086000886060015160006002811061515957615158617e76565b5b602002015173ffffffffffffffffffffffffffffffffffffffff1673ffffffffffffffffffffffffffffffffffffffff16815260200190815260200160002054815481106151aa576151a9617e76565b5b90600052602060002090600402016003018190555060006151e8600a87606001516001600281106151de576151dd617e76565b5b602002015161455c565b905080600b60086000896060015160016002811061520957615208617e76565b5b602002015173ffffffffffffffffffffffffffffffffffffffff1673ffffffffffffffffffffffffffffffffffffffff168152602001908152602001600020548154811061525a57615259617e76565b5b90600052602060002090600402016002018190555080600a61527c9190617ae8565b600b60086000896060015160016002811061529a57615299617e76565b5b602002015173ffffffffffffffffffffffffffffffffffffffff1673ffffffffffffffffffffffffffffffffffffffff16815260200190815260200160002054815481106152eb576152ea617e76565b5b906000526020600020906004020160030181905550505050505050565b60606000600167ffffffffffffffff81111561532757615326617ea5565b5b6040519080825280602002602001820160405280156153555781602001602082028036833780820191505090505b509050828160008151811061536d5761536c617e76565b5b60200260200101818152505080915050919050565b6153a18473ffffffffffffffffffffffffffffffffffffffff1661573b565b15615561578373ffffffffffffffffffffffffffffffffffffffff1663f23a6e6187878686866040518663ffffffff1660e01b81526004016153e7959493929190616fbb565b602060405180830381600087803b15801561540157600080fd5b505af192505050801561543257506040513d601f19601f8201168201806040525081019061542f9190615fd2565b60015b6154d85761543e617ed4565b806308c379a0141561549b57506154536187aa565b8061545e575061549d565b806040517f08c379a000000000000000000000000000000000000000000000000000000000815260040161549291906171b0565b60405180910390fd5b505b6040517f08c379a00000000000000000000000000000000000000000000000000000000081526004016154cf906175fe565b60405180910390fd5b63f23a6e6160e01b7bffffffffffffffffffffffffffffffffffffffffffffffffffffffff1916817bffffffffffffffffffffffffffffffffffffffffffffffffffffffff19161461555f576040517f08c379a00000000000000000000000000000000000000000000000000000000081526004016155569061721e565b60405180910390fd5b505b505050505050565b61557786868686868661575e565b600073ffffffffffffffffffffffffffffffffffffffff168573ffffffffffffffffffffffffffffffffffffffff1614156156295760005b8351811015615627578281815181106155cb576155ca617e76565b5b6020026020010151600460008684815181106155ea576155e9617e76565b5b60200260200101518152602001908152602001600020600082825461560f91906179d0565b925050819055508061562090617cb7565b90506155af565b505b600073ffffffffffffffffffffffffffffffffffffffff168473ffffffffffffffffffffffffffffffffffffffff1614156157335760005b835181101561573157600084828151811061567f5761567e617e76565b5b60200260200101519050600084838151811061569e5761569d617e76565b5b6020026020010151905060006004600084815260200190815260200160002054905081811015615703576040517f08c379a00000000000000000000000000000000000000000000000000000000081526004016156fa906174be565b60405180910390fd5b81810360046000858152602001908152602001600020819055505050508061572a90617cb7565b9050615661565b505b505050505050565b6000808273ffffffffffffffffffffffffffffffffffffffff163b119050919050565b505050505050565b6040518060800160405280606081526020016000815260200160008152602001600081525090565b6040518060c00160405280600060028111156157ad576157ac617e18565b5b815260200160008019168152602001606081526020016157cb6159df565b81526020016157d8615a01565b8152602001600073ffffffffffffffffffffffffffffffffffffffff1681525090565b82805461580790617c54565b90600052602060002090601f0160209004810192826158295760008555615870565b82601f1061584257805160ff1916838001178555615870565b82800160010185558215615870579182015b8281111561586f578251825591602001919060010190615854565b5b50905061587d9190615a23565b5090565b82600281019282156158ed579160200282015b828111156158ec5782518260006101000a81548173ffffffffffffffffffffffffffffffffffffffff021916908373ffffffffffffffffffffffffffffffffffffffff16021790555091602001919060010190615894565b5b5090506158fa9190615a23565b5090565b826002601f016020900481019282156159875791602002820160005b8382111561595857835183826101000a81548160ff021916908360ff160217905550926020019260010160208160000104928301926001030261591a565b80156159855782816101000a81549060ff0219169055600101602081600001049283019260010302615958565b505b5090506159949190615a23565b5090565b6040518060a00160405280600073ffffffffffffffffffffffffffffffffffffffff1681526020016060815260200160008152602001600081526020016000151581525090565b6040518060400160405280600290602082028036833780820191505090505090565b6040518060400160405280600290602082028036833780820191505090505090565b5b80821115615a3c576000816000905550600101615a24565b5090565b6000615a53615a4e84617764565b61773f565b90508083825260208201905082856020860282011115615a7657615a75617efb565b5b60005b85811015615aa65781615a8c8882615ba4565b845260208401935060208301925050600181019050615a79565b5050509392505050565b6000615ac3615abe84617790565b61773f565b90508083825260208201905082856020860282011115615ae657615ae5617efb565b5b60005b85811015615b165781615afc8882615cb0565b845260208401935060208301925050600181019050615ae9565b5050509392505050565b6000615b33615b2e846177bc565b61773f565b905082815260208101848484011115615b4f57615b4e617f00565b5b615b5a848285617c12565b509392505050565b6000615b75615b70846177ed565b61773f565b905082815260208101848484011115615b9157615b90617f00565b5b615b9c848285617c12565b509392505050565b600081359050615bb381618854565b92915050565b600082601f830112615bce57615bcd617ef6565b5b8135615bde848260208601615a40565b91505092915050565b600082601f830112615bfc57615bfb617ef6565b5b8135615c0c848260208601615ab0565b91505092915050565b600081359050615c248161886b565b92915050565b600081359050615c3981618882565b92915050565b600081519050615c4e81618882565b92915050565b600082601f830112615c6957615c68617ef6565b5b8135615c79848260208601615b20565b91505092915050565b600082601f830112615c9757615c96617ef6565b5b8135615ca7848260208601615b62565b91505092915050565b600081359050615cbf81618899565b92915050565b600081359050615cd4816188b0565b92915050565b600060208284031215615cf057615cef617f0a565b5b6000615cfe84828501615ba4565b91505092915050565b60008060408385031215615d1e57615d1d617f0a565b5b6000615d2c85828601615ba4565b9250506020615d3d85828601615ba4565b9150509250929050565b600080600080600060a08688031215615d6357615d62617f0a565b5b6000615d7188828901615ba4565b9550506020615d8288828901615ba4565b945050604086013567ffffffffffffffff811115615da357615da2617f05565b5b615daf88828901615be7565b935050606086013567ffffffffffffffff811115615dd057615dcf617f05565b5b615ddc88828901615be7565b925050608086013567ffffffffffffffff811115615dfd57615dfc617f05565b5b615e0988828901615c54565b9150509295509295909350565b600080600080600060a08688031215615e3257615e31617f0a565b5b6000615e4088828901615ba4565b9550506020615e5188828901615ba4565b9450506040615e6288828901615cb0565b9350506060615e7388828901615cb0565b925050608086013567ffffffffffffffff811115615e9457615e93617f05565b5b615ea088828901615c54565b9150509295509295909350565b60008060408385031215615ec457615ec3617f0a565b5b6000615ed285828601615ba4565b9250506020615ee385828601615c15565b9150509250929050565b60008060408385031215615f0457615f03617f0a565b5b6000615f1285828601615ba4565b9250506020615f2385828601615cb0565b9150509250929050565b60008060408385031215615f4457615f43617f0a565b5b600083013567ffffffffffffffff811115615f6257615f61617f05565b5b615f6e85828601615bb9565b925050602083013567ffffffffffffffff811115615f8f57615f8e617f05565b5b615f9b85828601615be7565b9150509250929050565b600060208284031215615fbb57615fba617f0a565b5b6000615fc984828501615c2a565b91505092915050565b600060208284031215615fe857615fe7617f0a565b5b6000615ff684828501615c3f565b91505092915050565b60006020828403121561601557616014617f0a565b5b600082013567ffffffffffffffff81111561603357616032617f05565b5b61603f84828501615c82565b91505092915050565b6000806040838503121561605f5761605e617f0a565b5b600083013567ffffffffffffffff81111561607d5761607c617f05565b5b61608985828601615c82565b925050602083013567ffffffffffffffff8111156160aa576160a9617f05565b5b6160b685828601615c82565b9150509250929050565b6000602082840312156160d6576160d5617f0a565b5b60006160e484828501615cb0565b91505092915050565b6000806040838503121561610457616103617f0a565b5b600061611285828601615cc5565b925050602083013567ffffffffffffffff81111561613357616132617f05565b5b61613f85828601615c82565b9150509250929050565b600061615583836161cd565b60208301905092915050565b600061616d8383616b65565b905092915050565b60006161818383616c79565b905092915050565b60006161958383616d3f565b905092915050565b60006161a98383616e2b565b60208301905092915050565b60006161c18383616e6f565b60208301905092915050565b6161d681617b50565b82525050565b6161e581617b50565b82525050565b6161fc6161f782617b50565b617d2a565b82525050565b61620b81617887565b616215818461792d565b92506162208261781e565b8060005b838110156162515781516162388782616149565b9650616243836178df565b925050600181019050616224565b505050505050565b61626281617887565b61626c8184617938565b92506162778261781e565b8060005b838110156162a857815161628f8782616149565b965061629a836178df565b92505060018101905061627b565b505050505050565b60006162bb82617892565b6162c58185617943565b9350836020820285016162d785617828565b8060005b8581101561631357848403895281516162f48582616161565b94506162ff836178ec565b925060208a019950506001810190506162db565b50829750879550505050505092915050565b60006163308261789d565b61633a8185617954565b93508360208202850161634c85617838565b8060005b8581101561638857848403895281516163698582616175565b9450616374836178f9565b925060208a01995050600181019050616350565b50829750879550505050505092915050565b60006163a5826178a8565b6163af8185617965565b9350836020820285016163c185617848565b8060005b858110156163fd57848403895281516163de8582616189565b94506163e983617906565b925060208a019950506001810190506163c5565b50829750879550505050505092915050565b600061641a826178b3565b6164248185617976565b935061642f83617858565b8060005b83811015616460578151616447888261619d565b975061645283617913565b925050600181019050616433565b5085935050505092915050565b616476816178be565b6164808184617987565b925061648b82617868565b8060005b838110156164bc5781516164a387826161b5565b96506164ae83617920565b92505060018101905061648f565b505050505050565b6164cd81617b62565b82525050565b6164dc81617b62565b82525050565b6164eb81617b6e565b82525050565b6164fa81617b6e565b82525050565b600061650b826178c9565b6165158185617992565b9350616525818560208601617c21565b61652e81617f0f565b840191505092915050565b61654281617bee565b82525050565b61655181617bee565b82525050565b6000616562826178d4565b61656c81856179a3565b935061657c818560208601617c21565b61658581617f0f565b840191505092915050565b600061659b826178d4565b6165a581856179b4565b93506165b5818560208601617c21565b6165be81617f0f565b840191505092915050565b60006165d4826178d4565b6165de81856179c5565b93506165ee818560208601617c21565b80840191505092915050565b6000815461660781617c54565b61661181866179c5565b9450600182166000811461662c576001811461663d57616670565b60ff19831686528186019350616670565b61664685617872565b60005b8381101561666857815481890152600182019150602081019050616649565b838801955050505b50505092915050565b60006166866028836179b4565b915061669182617f3a565b604082019050919050565b60006166a9601d836179b4565b91506166b482617f89565b602082019050919050565b60006166cc6019836179b4565b91506166d782617fb2565b602082019050919050565b60006166ef6026836179b4565b91506166fa82617fdb565b604082019050919050565b60006167126021836179b4565b915061671d8261802a565b604082019050919050565b60006167356014836179b4565b915061674082618079565b602082019050919050565b6000616758602a836179b4565b9150616763826180a2565b604082019050919050565b600061677b6011836179b4565b9150616786826180f1565b602082019050919050565b600061679e602e836179b4565b91506167a98261811a565b604082019050919050565b60006167c1601c836179b4565b91506167cc82618169565b602082019050919050565b60006167e46014836179b4565b91506167ef82618192565b602082019050919050565b60006168076018836179b4565b9150616812826181bb565b602082019050919050565b600061682a6017836179b4565b9150616835826181e4565b602082019050919050565b600061684d6016836179b4565b91506168588261820d565b602082019050919050565b6000616870601f836179b4565b915061687b82618236565b602082019050919050565b60006168936025836179b4565b915061689e8261825f565b604082019050919050565b60006168b66019836179b4565b91506168c1826182ae565b602082019050919050565b60006168d96021836179b4565b91506168e4826182d7565b604082019050919050565b60006168fc602a836179b4565b915061690782618326565b604082019050919050565b600061691f6005836179c5565b915061692a82618375565b600582019050919050565b60006169426020836179b4565b915061694d8261839e565b602082019050919050565b60006169656015836179b4565b9150616970826183c7565b602082019050919050565b60006169886028836179b4565b9150616993826183f0565b604082019050919050565b60006169ab601a836179b4565b91506169b68261843f565b602082019050919050565b60006169ce6022836179b4565b91506169d982618468565b604082019050919050565b60006169f16029836179b4565b91506169fc826184b7565b604082019050919050565b6000616a146029836179b4565b9150616a1f82618506565b604082019050919050565b6000616a376041836179b4565b9150616a4282618555565b606082019050919050565b6000616a5a6028836179b4565b9150616a65826185ca565b604082019050919050565b6000616a7d602b836179b4565b9150616a8882618619565b604082019050919050565b6000616aa06021836179b4565b9150616aab82618668565b604082019050919050565b6000616ac36015836179b4565b9150616ace826186b7565b602082019050919050565b6000616ae66034836179b4565b9150616af1826186e0565b604082019050919050565b6000616b09601b836179b4565b9150616b148261872f565b602082019050919050565b6000616b2c6001836179c5565b9150616b3782618758565b600182019050919050565b6000616b4f6015836179b4565b9150616b5a82618781565b602082019050919050565b600061010083016000830151616b7e6000860182616539565b506020830151616b9160208601826164e2565b5060408301518482036040860152616ba98282616557565b9150506060830151616bbe6060860182616202565b506080830151616bd160a086018261646d565b5060a0830151616be460e08601826161cd565b508091505092915050565b600061010083016000830151616c086000860182616539565b506020830151616c1b60208601826164e2565b5060408301518482036040860152616c338282616557565b9150506060830151616c486060860182616202565b506080830151616c5b60a086018261646d565b5060a0830151616c6e60e08601826161cd565b508091505092915050565b60006080830160008301518482036000860152616c968282616557565b9150506020830151616cab6020860182616e2b565b506040830151616cbe6040860182616e2b565b506060830151616cd16060860182616e2b565b508091505092915050565b60006080830160008301518482036000860152616cf98282616557565b9150506020830151616d0e6020860182616e2b565b506040830151616d216040860182616e2b565b506060830151616d346060860182616e2b565b508091505092915050565b600060a083016000830151616d5760008601826161cd565b5060208301518482036020860152616d6f8282616557565b9150506040830151616d846040860182616e2b565b506060830151616d976060860182616e2b565b506080830151616daa60808601826164c4565b508091505092915050565b600060a083016000830151616dcd60008601826161cd565b5060208301518482036020860152616de58282616557565b9150506040830151616dfa6040860182616e2b565b506060830151616e0d6060860182616e2b565b506080830151616e2060808601826164c4565b508091505092915050565b616e3481617bd7565b82525050565b616e4381617bd7565b82525050565b616e5a616e5582617bd7565b617d4e565b82525050565b616e6981617c00565b82525050565b616e7881617be1565b82525050565b6000616e8a82846165c9565b915081905092915050565b6000616ea182856165fa565b9150616eac82616b1f565b9150616eb882846165c9565b9150616ec382616912565b91508190509392505050565b6000616edb8285616e49565b602082019150616eeb82846161eb565b6014820191508190509392505050565b6000616f078286616e49565b602082019150616f178285616e49565b602082019150616f2782846161eb565b601482019150819050949350505050565b6000602082019050616f4d60008301846161dc565b92915050565b600060a082019050616f6860008301886161dc565b616f7560208301876161dc565b8181036040830152616f87818661640f565b90508181036060830152616f9b818561640f565b90508181036080830152616faf8184616500565b90509695505050505050565b600060a082019050616fd060008301886161dc565b616fdd60208301876161dc565b616fea6040830186616e3a565b616ff76060830185616e3a565b81810360808301526170098184616500565b90509695505050505050565b600060a08201905061702a60008301886161dc565b818103602083015261703c8187616590565b905061704b6040830186616e3a565b6170586060830185616e3a565b61706560808301846164d3565b9695505050505050565b60006040820190506170846000830184616259565b92915050565b600060208201905081810360008301526170a481846162b0565b905092915050565b600060208201905081810360008301526170c68184616325565b905092915050565b600060208201905081810360008301526170e8818461639a565b905092915050565b6000602082019050818103600083015261710a818461640f565b905092915050565b6000604082019050818103600083015261712c818561640f565b90508181036020830152617140818461640f565b90509392505050565b600060208201905061715e60008301846164d3565b92915050565b60006080820190506171796000830187616548565b61718660208301866164f1565b81810360408301526171988185616590565b90506171a760608301846161dc565b95945050505050565b600060208201905081810360008301526171ca8184616590565b905092915050565b600060808201905081810360008301526171ec8187616590565b90506171fb6020830186616e3a565b6172086040830185616e3a565b6172156060830184616e3a565b95945050505050565b6000602082019050818103600083015261723781616679565b9050919050565b600060208201905081810360008301526172578161669c565b9050919050565b60006020820190508181036000830152617277816166bf565b9050919050565b60006020820190508181036000830152617297816166e2565b9050919050565b600060208201905081810360008301526172b781616705565b9050919050565b600060208201905081810360008301526172d781616728565b9050919050565b600060208201905081810360008301526172f78161674b565b9050919050565b600060208201905081810360008301526173178161676e565b9050919050565b6000602082019050818103600083015261733781616791565b9050919050565b60006020820190508181036000830152617357816167b4565b9050919050565b60006020820190508181036000830152617377816167d7565b9050919050565b60006020820190508181036000830152617397816167fa565b9050919050565b600060208201905081810360008301526173b78161681d565b9050919050565b600060208201905081810360008301526173d781616840565b9050919050565b600060208201905081810360008301526173f781616863565b9050919050565b6000602082019050818103600083015261741781616886565b9050919050565b60006020820190508181036000830152617437816168a9565b9050919050565b60006020820190508181036000830152617457816168cc565b9050919050565b60006020820190508181036000830152617477816168ef565b9050919050565b6000602082019050818103600083015261749781616935565b9050919050565b600060208201905081810360008301526174b781616958565b9050919050565b600060208201905081810360008301526174d78161697b565b9050919050565b600060208201905081810360008301526174f78161699e565b9050919050565b60006020820190508181036000830152617517816169c1565b9050919050565b60006020820190508181036000830152617537816169e4565b9050919050565b6000602082019050818103600083015261755781616a07565b9050919050565b6000602082019050818103600083015261757781616a2a565b9050919050565b6000602082019050818103600083015261759781616a4d565b9050919050565b600060208201905081810360008301526175b781616a70565b9050919050565b600060208201905081810360008301526175d781616a93565b9050919050565b600060208201905081810360008301526175f781616ab6565b9050919050565b6000602082019050818103600083015261761781616ad9565b9050919050565b6000602082019050818103600083015261763781616afc565b9050919050565b6000602082019050818103600083015261765781616b42565b9050919050565b600060208201905081810360008301526176788184616bef565b905092915050565b6000602082019050818103600083015261769a8184616cdc565b905092915050565b600060208201905081810360008301526176bc8184616db5565b905092915050565b60006020820190506176d96000830184616e3a565b92915050565b60006040820190506176f46000830185616e3a565b6177016020830184616e3a565b9392505050565b600060608201905061771d6000830186616e60565b61772a6020830185616e3a565b6177376040830184616e3a565b949350505050565b600061774961775a565b90506177558282617c86565b919050565b6000604051905090565b600067ffffffffffffffff82111561777f5761777e617ea5565b5b602082029050602081019050919050565b600067ffffffffffffffff8211156177ab576177aa617ea5565b5b602082029050602081019050919050565b600067ffffffffffffffff8211156177d7576177d6617ea5565b5b6177e082617f0f565b9050602081019050919050565b600067ffffffffffffffff82111561780857617807617ea5565b5b61781182617f0f565b9050602081019050919050565b6000819050919050565b6000819050602082019050919050565b6000819050602082019050919050565b6000819050602082019050919050565b6000819050602082019050919050565b6000819050919050565b60008190508160005260206000209050919050565b600060029050919050565b600081519050919050565b600081519050919050565b600081519050919050565b600081519050919050565b600060029050919050565b600081519050919050565b600081519050919050565b6000602082019050919050565b6000602082019050919050565b6000602082019050919050565b6000602082019050919050565b6000602082019050919050565b6000602082019050919050565b600081905092915050565b600081905092915050565b600082825260208201905092915050565b600082825260208201905092915050565b600082825260208201905092915050565b600082825260208201905092915050565b600081905092915050565b600082825260208201905092915050565b600082825260208201905092915050565b600082825260208201905092915050565b600081905092915050565b60006179db82617bd7565b91506179e683617bd7565b9250827fffffffffffffffffffffffffffffffffffffffffffffffffffffffffffffffff03821115617a1b57617a1a617dba565b5b828201905092915050565b6000617a3182617be1565b9150617a3c83617be1565b92508260ff03821115617a5257617a51617dba565b5b828201905092915050565b6000617a6882617bd7565b9150617a7383617bd7565b925082617a8357617a82617de9565b5b828204905092915050565b6000617a9982617bd7565b9150617aa483617bd7565b9250817fffffffffffffffffffffffffffffffffffffffffffffffffffffffffffffffff0483118215151615617add57617adc617dba565b5b828202905092915050565b6000617af382617bd7565b9150617afe83617bd7565b925082821015617b1157617b10617dba565b5b828203905092915050565b6000617b2782617be1565b9150617b3283617be1565b925082821015617b4557617b44617dba565b5b828203905092915050565b6000617b5b82617bb7565b9050919050565b60008115159050919050565b6000819050919050565b60007fffffffff0000000000000000000000000000000000000000000000000000000082169050919050565b6000819050617bb282618840565b919050565b600073ffffffffffffffffffffffffffffffffffffffff82169050919050565b6000819050919050565b600060ff82169050919050565b6000617bf982617ba4565b9050919050565b6000617c0b82617be1565b9050919050565b82818337600083830152505050565b60005b83811015617c3f578082015181840152602081019050617c24565b83811115617c4e576000848401525b50505050565b60006002820490506001821680617c6c57607f821691505b60208210811415617c8057617c7f617e47565b5b50919050565b617c8f82617f0f565b810181811067ffffffffffffffff82111715617cae57617cad617ea5565b5b80604052505050565b6000617cc282617bd7565b91507fffffffffffffffffffffffffffffffffffffffffffffffffffffffffffffffff821415617cf557617cf4617dba565b5b600182019050919050565b6000617d0b82617be1565b915060ff821415617d1f57617d1e617dba565b5b600182019050919050565b6000617d3582617d3c565b9050919050565b6000617d4782617f20565b9050919050565b6000819050919050565b6000617d6382617bd7565b9150617d6e83617bd7565b925082617d7e57617d7d617de9565b5b828206905092915050565b6000617d9482617be1565b9150617d9f83617be1565b925082617daf57617dae617de9565b5b828206905092915050565b7f4e487b7100000000000000000000000000000000000000000000000000000000600052601160045260246000fd5b7f4e487b7100000000000000000000000000000000000000000000000000000000600052601260045260246000fd5b7f4e487b7100000000000000000000000000000000000000000000000000000000600052602160045260246000fd5b7f4e487b7100000000000000000000000000000000000000000000000000000000600052602260045260246000fd5b7f4e487b7100000000000000000000000000000000000000000000000000000000600052603260045260246000fd5b7f4e487b7100000000000000000000000000000000000000000000000000000000600052604160045260246000fd5b600060033d1115617ef35760046000803e617ef0600051617f2d565b90505b90565b600080fd5b600080fd5b600080fd5b600080fd5b600080fd5b6000601f19601f8301169050919050565b60008160601b9050919050565b60008160e01c9050919050565b7f455243313135353a204552433131353552656365697665722072656a6563746560008201527f6420746f6b656e73000000000000000000000000000000000000000000000000602082015250565b7f596f75206861766520616c7265616479206d6164652061206d6f766521000000600082015250565b7f47616d6520746f6b656e20646f65736e27742065786973742100000000000000600082015250565b7f4f776e61626c653a206e6577206f776e657220697320746865207a65726f206160008201527f6464726573730000000000000000000000000000000000000000000000000000602082015250565b7f506c6179657273207374696c6c206e65656420746f206d616b652061206d6f7660008201527f6500000000000000000000000000000000000000000000000000000000000000602082015250565b7f426174746c6520616c726561647920656e646564000000000000000000000000600082015250565b7f455243313135353a2061646472657373207a65726f206973206e6f742061207660008201527f616c6964206f776e657200000000000000000000000000000000000000000000602082015250565b7f416c726561647920696e20626174746c65000000000000000000000000000000600082015250565b7f455243313135353a2063616c6c6572206973206e6f7420746f6b656e206f776e60008201527f6572206f7220617070726f766564000000000000000000000000000000000000602082015250565b7f506c6561736520526567697374657220506c6179657220466972737400000000600082015250565b7f426174746c6520646f65736e2774206578697374000000000000000000000000600082015250565b7f426174746c652068617320616c726561647920656e6465640000000000000000600082015250565b7f426174746c6520616c7265616479207374617274656421000000000000000000600082015250565b7f426174746c6520616c7265616479206578697374732100000000000000000000600082015250565b7f43686f6963652073686f756c64206265206569746865722031206f7220322100600082015250565b7f455243313135353a207472616e7366657220746f20746865207a65726f20616460008201527f6472657373000000000000000000000000000000000000000000000000000000602082015250565b7f506c6179657220616c7265616479207265676973746572656400000000000000600082015250565b7f4f6e6c7920706c617965722074776f2063616e206a6f696e206120626174746c60008201527f6500000000000000000000000000000000000000000000000000000000000000602082015250565b7f455243313135353a20696e73756666696369656e742062616c616e636520666f60008201527f72207472616e7366657200000000000000000000000000000000000000000000602082015250565b7f2e6a736f6e000000000000000000000000000000000000000000000000000000600082015250565b7f4f776e61626c653a2063616c6c6572206973206e6f7420746865206f776e6572600082015250565b7f426174746c6520646f65736e2774206578697374210000000000000000000000600082015250565b7f455243313135353a206275726e20616d6f756e74206578636565647320746f7460008201527f616c537570706c79000000000000000000000000000000000000000000000000602082015250565b7f596f7520617265206e6f7420696e207468697320626174746c65000000000000600082015250565b7f4d616e61206e6f742073756666696369656e7420666f722061747461636b696e60008201527f6721000000000000000000000000000000000000000000000000000000000000602082015250565b7f455243313135353a2073657474696e6720617070726f76616c2073746174757360008201527f20666f722073656c660000000000000000000000000000000000000000000000602082015250565b7f455243313135353a206163636f756e747320616e6420696473206c656e67746860008201527f206d69736d617463680000000000000000000000000000000000000000000000602082015250565b7f426174746c65206e6f7420737461727465642e20506c656173652074656c6c2060008201527f616e6f7468657220706c6179657220746f206a6f696e2074686520626174746c60208201527f6500000000000000000000000000000000000000000000000000000000000000604082015250565b7f455243313135353a2069647320616e6420616d6f756e7473206c656e6774682060008201527f6d69736d61746368000000000000000000000000000000000000000000000000602082015250565b7f4f6e6c7920706c617965727320696e207468697320626174746c652063616e2060008201527f6d616b652061206d6f7665000000000000000000000000000000000000000000602082015250565b7f455243313135353a206d696e7420746f20746865207a65726f2061646472657360008201527f7300000000000000000000000000000000000000000000000000000000000000602082015250565b7f506c6179657220697320696e206120626174746c650000000000000000000000600082015250565b7f455243313135353a207472616e7366657220746f206e6f6e2d4552433131353560008201527f526563656976657220696d706c656d656e746572000000000000000000000000602082015250565b7f596f7520617265206e6f7420696e207468697320626174746c65210000000000600082015250565b7f2f00000000000000000000000000000000000000000000000000000000000000600082015250565b7f506c6179657220646f65736e2774206578697374210000000000000000000000600082015250565b600060443d10156187ba5761883d565b6187c261775a565b60043d036004823e80513d602482011167ffffffffffffffff821117156187ea57505061883d565b808201805167ffffffffffffffff811115618808575050505061883d565b80602083010160043d03850181111561882557505050505061883d565b61883482602001850186617c86565b82955050505050505b90565b6003811061885157618850617e18565b5b50565b61885d81617b50565b811461886857600080fd5b50565b61887481617b62565b811461887f57600080fd5b50565b61888b81617b78565b811461889657600080fd5b50565b6188a281617bd7565b81146188ad57600080fd5b50565b6188b981617be1565b81146188c457600080fd5b5056fea26469706673582212206510948d92007ec63e2cbdf37fb0436a460d2602c16e6d85ca958c58b256e61c64736f6c63430008070033",
  "linkReferences": {},
  "deployedLinkReferences": {}
}